{
  "contractName": "AsixTokenV3",
  "abi": [
    {
      "inputs": [
        {
          "internalType": "string",
          "name": "_name",
          "type": "string"
        },
        {
          "internalType": "string",
          "name": "_symbol",
          "type": "string"
        },
        {
          "internalType": "address",
          "name": "_tokensale",
          "type": "address"
        }
      ],
      "stateMutability": "nonpayable",
      "type": "constructor"
    },
    {
      "anonymous": false,
      "inputs": [
        {
          "indexed": true,
          "internalType": "address",
          "name": "owner",
          "type": "address"
        },
        {
          "indexed": true,
          "internalType": "address",
          "name": "spender",
          "type": "address"
        },
        {
          "indexed": false,
          "internalType": "uint256",
          "name": "value",
          "type": "uint256"
        }
      ],
      "name": "Approval",
      "type": "event"
    },
    {
      "anonymous": false,
      "inputs": [
        {
          "indexed": false,
          "internalType": "uint256",
          "name": "startTime",
          "type": "uint256"
        },
        {
          "indexed": false,
          "internalType": "uint256",
          "name": "endTime",
          "type": "uint256"
        },
        {
          "indexed": false,
          "internalType": "uint256",
          "name": "amount",
          "type": "uint256"
        },
        {
          "indexed": false,
          "internalType": "uint256",
          "name": "price",
          "type": "uint256"
        }
      ],
      "name": "MintTokens",
      "type": "event"
    },
    {
      "anonymous": false,
      "inputs": [
        {
          "indexed": true,
          "internalType": "address",
          "name": "previousOwner",
          "type": "address"
        },
        {
          "indexed": true,
          "internalType": "address",
          "name": "newOwner",
          "type": "address"
        }
      ],
      "name": "OwnershipTransferred",
      "type": "event"
    },
    {
      "anonymous": false,
      "inputs": [
        {
          "indexed": true,
          "internalType": "address",
          "name": "from",
          "type": "address"
        },
        {
          "indexed": true,
          "internalType": "address",
          "name": "to",
          "type": "address"
        },
        {
          "indexed": false,
          "internalType": "uint256",
          "name": "value",
          "type": "uint256"
        }
      ],
      "name": "Transfer",
      "type": "event"
    },
    {
      "stateMutability": "nonpayable",
      "type": "fallback"
    },
    {
      "inputs": [],
      "name": "activePeriod",
      "outputs": [
        {
          "internalType": "bool",
          "name": "",
          "type": "bool"
        }
      ],
      "stateMutability": "view",
      "type": "function",
      "constant": true
    },
    {
      "inputs": [
        {
          "internalType": "address",
          "name": "owner",
          "type": "address"
        },
        {
          "internalType": "address",
          "name": "spender",
          "type": "address"
        }
      ],
      "name": "allowance",
      "outputs": [
        {
          "internalType": "uint256",
          "name": "",
          "type": "uint256"
        }
      ],
      "stateMutability": "view",
      "type": "function",
      "constant": true
    },
    {
      "inputs": [
        {
          "internalType": "address",
          "name": "spender",
          "type": "address"
        },
        {
          "internalType": "uint256",
          "name": "amount",
          "type": "uint256"
        }
      ],
      "name": "approve",
      "outputs": [
        {
          "internalType": "bool",
          "name": "",
          "type": "bool"
        }
      ],
      "stateMutability": "nonpayable",
      "type": "function"
    },
    {
      "inputs": [
        {
          "internalType": "address",
          "name": "account",
          "type": "address"
        }
      ],
      "name": "balanceOf",
      "outputs": [
        {
          "internalType": "uint256",
          "name": "",
          "type": "uint256"
        }
      ],
      "stateMutability": "view",
      "type": "function",
      "constant": true
    },
    {
      "inputs": [
        {
          "internalType": "address",
          "name": "",
          "type": "address"
        }
      ],
      "name": "contributers",
      "outputs": [
        {
          "internalType": "uint256",
          "name": "",
          "type": "uint256"
        }
      ],
      "stateMutability": "view",
      "type": "function",
      "constant": true
    },
    {
      "inputs": [],
      "name": "decimals",
      "outputs": [
        {
          "internalType": "uint8",
          "name": "",
          "type": "uint8"
        }
      ],
      "stateMutability": "view",
      "type": "function",
      "constant": true
    },
    {
      "inputs": [
        {
          "internalType": "address",
          "name": "spender",
          "type": "address"
        },
        {
          "internalType": "uint256",
          "name": "subtractedValue",
          "type": "uint256"
        }
      ],
      "name": "decreaseAllowance",
      "outputs": [
        {
          "internalType": "bool",
          "name": "",
          "type": "bool"
        }
      ],
      "stateMutability": "nonpayable",
      "type": "function"
    },
    {
      "inputs": [],
      "name": "hardcap",
      "outputs": [
        {
          "internalType": "uint256",
          "name": "",
          "type": "uint256"
        }
      ],
      "stateMutability": "view",
      "type": "function",
      "constant": true
    },
    {
      "inputs": [],
      "name": "id",
      "outputs": [
        {
          "internalType": "uint256",
          "name": "",
          "type": "uint256"
        }
      ],
      "stateMutability": "view",
      "type": "function",
      "constant": true
    },
    {
      "inputs": [
        {
          "internalType": "address",
          "name": "spender",
          "type": "address"
        },
        {
          "internalType": "uint256",
          "name": "addedValue",
          "type": "uint256"
        }
      ],
      "name": "increaseAllowance",
      "outputs": [
        {
          "internalType": "bool",
          "name": "",
          "type": "bool"
        }
      ],
      "stateMutability": "nonpayable",
      "type": "function"
    },
    {
      "inputs": [],
      "name": "name",
      "outputs": [
        {
          "internalType": "string",
          "name": "",
          "type": "string"
        }
      ],
      "stateMutability": "view",
      "type": "function",
      "constant": true
    },
    {
      "inputs": [],
      "name": "owner",
      "outputs": [
        {
          "internalType": "address",
          "name": "",
          "type": "address"
        }
      ],
      "stateMutability": "view",
      "type": "function",
      "constant": true
    },
    {
      "inputs": [
        {
          "internalType": "uint256",
          "name": "",
          "type": "uint256"
        }
      ],
      "name": "periods",
      "outputs": [
        {
          "internalType": "uint256",
          "name": "startTime",
          "type": "uint256"
        },
        {
          "internalType": "uint256",
          "name": "endTime",
          "type": "uint256"
        },
        {
          "internalType": "uint256",
          "name": "price",
          "type": "uint256"
        },
        {
          "internalType": "uint256",
          "name": "amount",
          "type": "uint256"
        },
        {
          "internalType": "uint256",
          "name": "remaining",
          "type": "uint256"
        },
        {
          "internalType": "uint256",
          "name": "hardcap",
          "type": "uint256"
        },
        {
          "internalType": "bool",
          "name": "active",
          "type": "bool"
        }
      ],
      "stateMutability": "view",
      "type": "function",
      "constant": true
    },
    {
      "inputs": [],
      "name": "price",
      "outputs": [
        {
          "internalType": "uint256",
          "name": "",
          "type": "uint256"
        }
      ],
      "stateMutability": "view",
      "type": "function",
      "constant": true
    },
    {
      "inputs": [],
      "name": "renounceOwnership",
      "outputs": [],
      "stateMutability": "nonpayable",
      "type": "function"
    },
    {
      "inputs": [],
      "name": "symbol",
      "outputs": [
        {
          "internalType": "string",
          "name": "",
          "type": "string"
        }
      ],
      "stateMutability": "view",
      "type": "function",
      "constant": true
    },
    {
      "inputs": [],
      "name": "totalPurchased",
      "outputs": [
        {
          "internalType": "uint256",
          "name": "",
          "type": "uint256"
        }
      ],
      "stateMutability": "view",
      "type": "function",
      "constant": true
    },
    {
      "inputs": [],
      "name": "totalSupply",
      "outputs": [
        {
          "internalType": "uint256",
          "name": "",
          "type": "uint256"
        }
      ],
      "stateMutability": "view",
      "type": "function",
      "constant": true
    },
    {
      "inputs": [
        {
          "internalType": "address",
          "name": "to",
          "type": "address"
        },
        {
          "internalType": "uint256",
          "name": "amount",
          "type": "uint256"
        }
      ],
      "name": "transfer",
      "outputs": [
        {
          "internalType": "bool",
          "name": "",
          "type": "bool"
        }
      ],
      "stateMutability": "nonpayable",
      "type": "function"
    },
    {
      "inputs": [
        {
          "internalType": "address",
          "name": "from",
          "type": "address"
        },
        {
          "internalType": "address",
          "name": "to",
          "type": "address"
        },
        {
          "internalType": "uint256",
          "name": "amount",
          "type": "uint256"
        }
      ],
      "name": "transferFrom",
      "outputs": [
        {
          "internalType": "bool",
          "name": "",
          "type": "bool"
        }
      ],
      "stateMutability": "nonpayable",
      "type": "function"
    },
    {
      "inputs": [
        {
          "internalType": "address",
          "name": "newOwner",
          "type": "address"
        }
      ],
      "name": "transferOwnership",
      "outputs": [],
      "stateMutability": "nonpayable",
      "type": "function"
    },
    {
      "inputs": [
        {
          "internalType": "address",
          "name": "",
          "type": "address"
        },
        {
          "internalType": "uint256",
          "name": "",
          "type": "uint256"
        }
      ],
      "name": "userDetails",
      "outputs": [
        {
          "internalType": "bool",
          "name": "",
          "type": "bool"
        }
      ],
      "stateMutability": "view",
      "type": "function",
      "constant": true
    },
    {
      "inputs": [
        {
          "internalType": "uint256",
          "name": "_startTime",
          "type": "uint256"
        },
        {
          "internalType": "uint256",
          "name": "_endTime",
          "type": "uint256"
        },
        {
          "internalType": "uint256",
          "name": "_amount",
          "type": "uint256"
        },
        {
          "internalType": "uint256",
          "name": "_price",
          "type": "uint256"
        },
        {
          "internalType": "uint256",
          "name": "_hardcap",
          "type": "uint256"
        }
      ],
      "name": "mintTokens",
      "outputs": [
        {
          "internalType": "bool",
          "name": "",
          "type": "bool"
        }
      ],
      "stateMutability": "nonpayable",
      "type": "function"
    },
    {
      "inputs": [
        {
          "internalType": "uint256",
          "name": "_amount",
          "type": "uint256"
        },
        {
          "internalType": "uint256",
          "name": "_num",
          "type": "uint256"
        }
      ],
      "name": "requestToken",
      "outputs": [],
      "stateMutability": "payable",
      "type": "function",
      "payable": true
    },
    {
      "inputs": [
        {
          "internalType": "address",
          "name": "_spender",
          "type": "address"
        }
      ],
      "name": "approveToken",
      "outputs": [
        {
          "internalType": "bool",
          "name": "",
          "type": "bool"
        }
      ],
      "stateMutability": "nonpayable",
      "type": "function"
    },
    {
      "inputs": [
        {
          "internalType": "address",
          "name": "_spender",
          "type": "address"
        }
      ],
      "name": "disApproveToken",
      "outputs": [
        {
          "internalType": "bool",
          "name": "",
          "type": "bool"
        }
      ],
      "stateMutability": "nonpayable",
      "type": "function"
    },
    {
      "inputs": [
        {
          "internalType": "address",
          "name": "_address",
          "type": "address"
        }
      ],
      "name": "getPurchasedTokens",
      "outputs": [
        {
          "components": [
            {
              "internalType": "address",
              "name": "_address",
              "type": "address"
            },
            {
              "internalType": "uint256",
              "name": "_amount",
              "type": "uint256"
            },
            {
              "internalType": "uint256",
              "name": "_price",
              "type": "uint256"
            },
            {
              "internalType": "uint256",
              "name": "_time",
              "type": "uint256"
            }
          ],
          "internalType": "struct AsixTokenV3.Purchased[]",
          "name": "",
          "type": "tuple[]"
        }
      ],
      "stateMutability": "view",
      "type": "function",
      "constant": true
    },
    {
      "inputs": [],
      "name": "getMinimumTokens",
      "outputs": [
        {
          "internalType": "uint256",
          "name": "",
          "type": "uint256"
        }
      ],
      "stateMutability": "view",
      "type": "function",
      "constant": true
    },
    {
      "inputs": [],
      "name": "getPeriods",
      "outputs": [
        {
          "components": [
            {
              "internalType": "uint256",
              "name": "startTime",
              "type": "uint256"
            },
            {
              "internalType": "uint256",
              "name": "endTime",
              "type": "uint256"
            },
            {
              "internalType": "uint256",
              "name": "price",
              "type": "uint256"
            },
            {
              "internalType": "uint256",
              "name": "amount",
              "type": "uint256"
            },
            {
              "internalType": "uint256",
              "name": "remaining",
              "type": "uint256"
            },
            {
              "internalType": "uint256",
              "name": "hardcap",
              "type": "uint256"
            },
            {
              "internalType": "bool",
              "name": "active",
              "type": "bool"
            }
          ],
          "internalType": "struct AsixTokenV3.Period[]",
          "name": "",
          "type": "tuple[]"
        }
      ],
      "stateMutability": "view",
      "type": "function",
      "constant": true
    },
    {
      "inputs": [],
      "name": "getActivePeriod",
      "outputs": [
        {
          "components": [
            {
              "internalType": "uint256",
              "name": "startTime",
              "type": "uint256"
            },
            {
              "internalType": "uint256",
              "name": "endTime",
              "type": "uint256"
            },
            {
              "internalType": "uint256",
              "name": "price",
              "type": "uint256"
            },
            {
              "internalType": "uint256",
              "name": "amount",
              "type": "uint256"
            },
            {
              "internalType": "uint256",
              "name": "remaining",
              "type": "uint256"
            },
            {
              "internalType": "uint256",
              "name": "hardcap",
              "type": "uint256"
            },
            {
              "internalType": "bool",
              "name": "active",
              "type": "bool"
            }
          ],
          "internalType": "struct AsixTokenV3.Period",
          "name": "",
          "type": "tuple"
        }
      ],
      "stateMutability": "view",
      "type": "function",
      "constant": true
    },
    {
      "inputs": [],
      "name": "deactivatePeriod",
      "outputs": [
        {
          "internalType": "bool",
          "name": "",
          "type": "bool"
        }
      ],
      "stateMutability": "nonpayable",
      "type": "function"
    },
    {
      "inputs": [
        {
          "internalType": "address",
          "name": "_address",
          "type": "address"
        },
        {
          "internalType": "string",
          "name": "_name",
          "type": "string"
        }
      ],
      "name": "addUser",
      "outputs": [
        {
          "internalType": "bool",
          "name": "",
          "type": "bool"
        }
      ],
      "stateMutability": "nonpayable",
      "type": "function"
    },
    {
      "inputs": [
        {
          "internalType": "address",
          "name": "_address",
          "type": "address"
        }
      ],
      "name": "addToWhitelist",
      "outputs": [
        {
          "internalType": "bool",
          "name": "",
          "type": "bool"
        }
      ],
      "stateMutability": "nonpayable",
      "type": "function"
    },
    {
      "inputs": [
        {
          "internalType": "address",
          "name": "_address",
          "type": "address"
        }
      ],
      "name": "removeFromWhitelist",
      "outputs": [
        {
          "internalType": "bool",
          "name": "",
          "type": "bool"
        }
      ],
      "stateMutability": "nonpayable",
      "type": "function"
    }
  ],
  "bytecode": "0x6080604052620000146200022760201b60201c565b600a62000022919062000969565b6008553480156200003257600080fd5b5060405162005fc238038062005fc2833981810160405281019062000058919062000bbc565b82828160039080519060200190620000729291906200071f565b5080600490805190602001906200008b9291906200071f565b505050620000ae620000a26200023060201b60201c565b6200023860201b60201c565b80600c60016101000a81548173ffffffffffffffffffffffffffffffffffffffff021916908373ffffffffffffffffffffffffffffffffffffffff1602179055506200011630600854655af3107a40006200010a919062000c56565b620002fe60201b60201c565b600073bad1a9503a1fbe4e3b6da8c32ef50709446ff9459050600073bad1a9503a1fbe4e3b6da8c32ef50709446ff9459050600073bad1a9503a1fbe4e3b6da8c32ef50709446ff9459050600073bad1a9503a1fbe4e3b6da8c32ef50709446ff9459050620001a23085600854650bd2cc61d00062000196919062000c56565b6200047760201b60201c565b620001ca308460085465048c27395000620001be919062000c56565b6200047760201b60201c565b620001f2308360085465105ef39b2000620001e6919062000c56565b6200047760201b60201c565b6200021a30826008546515d3ef7980006200020e919062000c56565b6200047760201b60201c565b5050505050505062000ff2565b60006012905090565b600033905090565b6000600560009054906101000a900473ffffffffffffffffffffffffffffffffffffffff16905081600560006101000a81548173ffffffffffffffffffffffffffffffffffffffff021916908373ffffffffffffffffffffffffffffffffffffffff1602179055508173ffffffffffffffffffffffffffffffffffffffff168173ffffffffffffffffffffffffffffffffffffffff167f8be0079c531659141344cd1fd0a4f28419497f9722a3daafe3b4186f6b6457e060405160405180910390a35050565b600073ffffffffffffffffffffffffffffffffffffffff168273ffffffffffffffffffffffffffffffffffffffff16141562000371576040517f08c379a0000000000000000000000000000000000000000000000000000000008152600401620003689062000d18565b60405180910390fd5b62000385600083836200071560201b60201c565b806002600082825462000399919062000d3a565b92505081905550806000808473ffffffffffffffffffffffffffffffffffffffff1673ffffffffffffffffffffffffffffffffffffffff1681526020019081526020016000206000828254620003f0919062000d3a565b925050819055508173ffffffffffffffffffffffffffffffffffffffff16600073ffffffffffffffffffffffffffffffffffffffff167fddf252ad1be2c89b69c2b068fc378daa952ba7f163c4a11628f55a4df523b3ef8360405162000457919062000da8565b60405180910390a362000473600083836200071a60201b60201c565b5050565b600073ffffffffffffffffffffffffffffffffffffffff168373ffffffffffffffffffffffffffffffffffffffff161415620004ea576040517f08c379a0000000000000000000000000000000000000000000000000000000008152600401620004e19062000e3b565b60405180910390fd5b600073ffffffffffffffffffffffffffffffffffffffff168273ffffffffffffffffffffffffffffffffffffffff1614156200055d576040517f08c379a0000000000000000000000000000000000000000000000000000000008152600401620005549062000ed3565b60405180910390fd5b620005708383836200071560201b60201c565b60008060008573ffffffffffffffffffffffffffffffffffffffff1673ffffffffffffffffffffffffffffffffffffffff16815260200190815260200160002054905081811015620005f9576040517f08c379a0000000000000000000000000000000000000000000000000000000008152600401620005f09062000f6b565b60405180910390fd5b8181036000808673ffffffffffffffffffffffffffffffffffffffff1673ffffffffffffffffffffffffffffffffffffffff16815260200190815260200160002081905550816000808573ffffffffffffffffffffffffffffffffffffffff1673ffffffffffffffffffffffffffffffffffffffff16815260200190815260200160002060008282546200068e919062000d3a565b925050819055508273ffffffffffffffffffffffffffffffffffffffff168473ffffffffffffffffffffffffffffffffffffffff167fddf252ad1be2c89b69c2b068fc378daa952ba7f163c4a11628f55a4df523b3ef84604051620006f4919062000da8565b60405180910390a36200070f8484846200071a60201b60201c565b50505050565b505050565b505050565b8280546200072d9062000fbc565b90600052602060002090601f0160209004810192826200075157600085556200079d565b82601f106200076c57805160ff19168380011785556200079d565b828001600101855582156200079d579182015b828111156200079c5782518255916020019190600101906200077f565b5b509050620007ac9190620007b0565b5090565b5b80821115620007cb576000816000905550600101620007b1565b5090565b7f4e487b7100000000000000000000000000000000000000000000000000000000600052601160045260246000fd5b60008160011c9050919050565b6000808291508390505b60018511156200085d57808604811115620008355762000834620007cf565b5b6001851615620008455780820291505b80810290506200085585620007fe565b945062000815565b94509492505050565b6000826200087857600190506200094b565b816200088857600090506200094b565b8160018114620008a15760028114620008ac57620008e2565b60019150506200094b565b60ff841115620008c157620008c0620007cf565b5b8360020a915084821115620008db57620008da620007cf565b5b506200094b565b5060208310610133831016604e8410600b84101617156200091c5782820a905083811115620009165762000915620007cf565b5b6200094b565b6200092b84848460016200080b565b92509050818404811115620009455762000944620007cf565b5b81810290505b9392505050565b6000819050919050565b600060ff82169050919050565b6000620009768262000952565b915062000983836200095c565b9250620009b27fffffffffffffffffffffffffffffffffffffffffffffffffffffffffffffffff848462000866565b905092915050565b6000604051905090565b600080fd5b600080fd5b600080fd5b600080fd5b6000601f19601f8301169050919050565b7f4e487b7100000000000000000000000000000000000000000000000000000000600052604160045260246000fd5b62000a2382620009d8565b810181811067ffffffffffffffff8211171562000a455762000a44620009e9565b5b80604052505050565b600062000a5a620009ba565b905062000a68828262000a18565b919050565b600067ffffffffffffffff82111562000a8b5762000a8a620009e9565b5b62000a9682620009d8565b9050602081019050919050565b60005b8381101562000ac357808201518184015260208101905062000aa6565b8381111562000ad3576000848401525b50505050565b600062000af062000aea8462000a6d565b62000a4e565b90508281526020810184848401111562000b0f5762000b0e620009d3565b5b62000b1c84828562000aa3565b509392505050565b600082601f83011262000b3c5762000b3b620009ce565b5b815162000b4e84826020860162000ad9565b91505092915050565b600073ffffffffffffffffffffffffffffffffffffffff82169050919050565b600062000b848262000b57565b9050919050565b62000b968162000b77565b811462000ba257600080fd5b50565b60008151905062000bb68162000b8b565b92915050565b60008060006060848603121562000bd85762000bd7620009c4565b5b600084015167ffffffffffffffff81111562000bf95762000bf8620009c9565b5b62000c078682870162000b24565b935050602084015167ffffffffffffffff81111562000c2b5762000c2a620009c9565b5b62000c398682870162000b24565b925050604062000c4c8682870162000ba5565b9150509250925092565b600062000c638262000952565b915062000c708362000952565b9250817fffffffffffffffffffffffffffffffffffffffffffffffffffffffffffffffff048311821515161562000cac5762000cab620007cf565b5b828202905092915050565b600082825260208201905092915050565b7f45524332303a206d696e7420746f20746865207a65726f206164647265737300600082015250565b600062000d00601f8362000cb7565b915062000d0d8262000cc8565b602082019050919050565b6000602082019050818103600083015262000d338162000cf1565b9050919050565b600062000d478262000952565b915062000d548362000952565b9250827fffffffffffffffffffffffffffffffffffffffffffffffffffffffffffffffff0382111562000d8c5762000d8b620007cf565b5b828201905092915050565b62000da28162000952565b82525050565b600060208201905062000dbf600083018462000d97565b92915050565b7f45524332303a207472616e736665722066726f6d20746865207a65726f20616460008201527f6472657373000000000000000000000000000000000000000000000000000000602082015250565b600062000e2360258362000cb7565b915062000e308262000dc5565b604082019050919050565b6000602082019050818103600083015262000e568162000e14565b9050919050565b7f45524332303a207472616e7366657220746f20746865207a65726f206164647260008201527f6573730000000000000000000000000000000000000000000000000000000000602082015250565b600062000ebb60238362000cb7565b915062000ec88262000e5d565b604082019050919050565b6000602082019050818103600083015262000eee8162000eac565b9050919050565b7f45524332303a207472616e7366657220616d6f756e742065786365656473206260008201527f616c616e63650000000000000000000000000000000000000000000000000000602082015250565b600062000f5360268362000cb7565b915062000f608262000ef5565b604082019050919050565b6000602082019050818103600083015262000f868162000f44565b9050919050565b7f4e487b7100000000000000000000000000000000000000000000000000000000600052602260045260246000fd5b6000600282049050600182168062000fd557607f821691505b6020821081141562000fec5762000feb62000f8d565b5b50919050565b614fc080620010026000396000f3fe6080604052600436106101fd5760003560e01c80638da5cb5b1161010d578063b2b8b798116100a0578063e43252d71161006f578063e43252d7146107e9578063e632c2f314610826578063ea4a110414610851578063f2fde38b14610894578063f9486e87146108bd576101fe565b8063b2b8b79814610719578063cd1f126e14610756578063dd62ed3e14610781578063df7563f2146107be576101fe565b8063a5c56a2b116100dc578063a5c56a2b1461065b578063a9059cbb14610686578063af640d0f146106c3578063b071cbe6146106ee576101fe565b80638da5cb5b1461059d57806395d89b41146105c8578063a035b1fe146105f3578063a457c2d71461061e576101fe565b8063395093511161019057806370a082311161015f57806370a0823114610492578063715018a6146104cf57806380b2edd8146104e657806381235293146105235780638ab1d68114610560576101fe565b806339509351146103b057806345c9a558146103ed5780634b68d4311461041857806354ed08c814610455576101fe565b80631b2ece00116101cc5780631b2ece00146102ce57806323b872dd1461030b578063313ce5671461034857806334b6646014610373576101fe565b806306fdde0314610210578063095ea7b31461023b5780630a441f7b1461027857806318160ddd146102a3576101fe565b5b34801561020a57600080fd5b50600080fd5b34801561021c57600080fd5b506102256108d9565b604051610232919061324a565b60405180910390f35b34801561024757600080fd5b50610262600480360381019061025d9190613314565b61096b565b60405161026f919061336f565b60405180910390f35b34801561028457600080fd5b5061028d61098e565b60405161029a919061336f565b60405180910390f35b3480156102af57600080fd5b506102b86109a1565b6040516102c59190613399565b60405180910390f35b3480156102da57600080fd5b506102f560048036038101906102f09190613314565b6109ab565b604051610302919061336f565b60405180910390f35b34801561031757600080fd5b50610332600480360381019061032d91906133b4565b6109da565b60405161033f919061336f565b60405180910390f35b34801561035457600080fd5b5061035d610a09565b60405161036a9190613423565b60405180910390f35b34801561037f57600080fd5b5061039a6004803603810190610395919061343e565b610a12565b6040516103a79190613399565b60405180910390f35b3480156103bc57600080fd5b506103d760048036038101906103d29190613314565b610a2a565b6040516103e4919061336f565b60405180910390f35b3480156103f957600080fd5b50610402610a61565b60405161040f91906135c6565b60405180910390f35b34801561042457600080fd5b5061043f600480360381019061043a919061371d565b610b84565b60405161044c919061336f565b60405180910390f35b34801561046157600080fd5b5061047c6004803603810190610477919061343e565b610c31565b604051610489919061388c565b60405180910390f35b34801561049e57600080fd5b506104b960048036038101906104b4919061343e565b610df7565b6040516104c69190613399565b60405180910390f35b3480156104db57600080fd5b506104e4610e3f565b005b3480156104f257600080fd5b5061050d6004803603810190610508919061343e565b610ec7565b60405161051a919061336f565b60405180910390f35b34801561052f57600080fd5b5061054a6004803603810190610545919061343e565b611344565b604051610557919061336f565b60405180910390f35b34801561056c57600080fd5b506105876004803603810190610582919061343e565b61176e565b604051610594919061336f565b60405180910390f35b3480156105a957600080fd5b506105b26118d0565b6040516105bf91906138bd565b60405180910390f35b3480156105d457600080fd5b506105dd6118fa565b6040516105ea919061324a565b60405180910390f35b3480156105ff57600080fd5b5061060861198c565b6040516106159190613399565b60405180910390f35b34801561062a57600080fd5b5061064560048036038101906106409190613314565b611992565b604051610652919061336f565b60405180910390f35b34801561066757600080fd5b50610670611a09565b60405161067d9190613966565b60405180910390f35b34801561069257600080fd5b506106ad60048036038101906106a89190613314565b611a93565b6040516106ba919061336f565b60405180910390f35b3480156106cf57600080fd5b506106d8611ab6565b6040516106e59190613399565b60405180910390f35b3480156106fa57600080fd5b50610703611abc565b6040516107109190613399565b60405180910390f35b34801561072557600080fd5b50610740600480360381019061073b9190613981565b611ac2565b60405161074d919061336f565b60405180910390f35b34801561076257600080fd5b5061076b611cfd565b6040516107789190613399565b60405180910390f35b34801561078d57600080fd5b506107a860048036038101906107a391906139fc565b611d31565b6040516107b59190613399565b60405180910390f35b3480156107ca57600080fd5b506107d3611db8565b6040516107e0919061336f565b60405180910390f35b3480156107f557600080fd5b50610810600480360381019061080b919061343e565b611e9e565b60405161081d919061336f565b60405180910390f35b34801561083257600080fd5b5061083b6121ba565b6040516108489190613399565b60405180910390f35b34801561085d57600080fd5b5061087860048036038101906108739190613a3c565b6121c0565b60405161088b9796959493929190613a69565b60405180910390f35b3480156108a057600080fd5b506108bb60048036038101906108b6919061343e565b61220f565b005b6108d760048036038101906108d29190613ad8565b612307565b005b6060600380546108e890613b47565b80601f016020809104026020016040519081016040528092919081815260200182805461091490613b47565b80156109615780601f1061093657610100808354040283529160200191610961565b820191906000526020600020905b81548152906001019060200180831161094457829003601f168201915b5050505050905090565b6000806109766126c5565b90506109838185856126cd565b600191505092915050565b600c60009054906101000a900460ff1681565b6000600254905090565b60106020528160005260406000206020528060005260406000206000915091509054906101000a900460ff1681565b6000806109e56126c5565b90506109f2858285612898565b6109fd858585612924565b60019150509392505050565b60006012905090565b600d6020528060005260406000206000915090505481565b600080610a356126c5565b9050610a56818585610a478589611d31565b610a519190613ba8565b6126cd565b600191505092915050565b6060600060065467ffffffffffffffff811115610a8157610a806135f2565b5b604051908082528060200260200182016040528015610aba57816020015b610aa7613134565b815260200190600190039081610a9f5790505b50905060005b600654811015610b7c57600f6000600183610adb9190613ba8565b81526020019081526020016000206040518060e00160405290816000820154815260200160018201548152602001600282015481526020016003820154815260200160048201548152602001600582015481526020016006820160009054906101000a900460ff161515151581525050828281518110610b5e57610b5d613bfe565b5b60200260200101819052508080610b7490613c2d565b915050610ac0565b508091505090565b6000600c60019054906101000a900473ffffffffffffffffffffffffffffffffffffffff1673ffffffffffffffffffffffffffffffffffffffff16634b68d43184846040518363ffffffff1660e01b8152600401610be3929190613c76565b6020604051808303816000875af1158015610c02573d6000803e3d6000fd5b505050506040513d601f19601f82011682018060405250810190610c269190613cd2565b506001905092915050565b60606000601180549050905060008167ffffffffffffffff811115610c5957610c586135f2565b5b604051908082528060200260200182016040528015610c9257816020015b610c7f613173565b815260200190600190039081610c775790505b50905060005b82811015610dec578473ffffffffffffffffffffffffffffffffffffffff1660118281548110610ccb57610cca613bfe565b5b906000526020600020906004020160000160009054906101000a900473ffffffffffffffffffffffffffffffffffffffff1673ffffffffffffffffffffffffffffffffffffffff161415610dd95760118181548110610d2d57610d2c613bfe565b5b90600052602060002090600402016040518060800160405290816000820160009054906101000a900473ffffffffffffffffffffffffffffffffffffffff1673ffffffffffffffffffffffffffffffffffffffff1673ffffffffffffffffffffffffffffffffffffffff1681526020016001820154815260200160028201548152602001600382015481525050828281518110610dcd57610dcc613bfe565b5b60200260200101819052505b8080610de490613c2d565b915050610c98565b508092505050919050565b60008060008373ffffffffffffffffffffffffffffffffffffffff1673ffffffffffffffffffffffffffffffffffffffff168152602001908152602001600020549050919050565b610e476126c5565b73ffffffffffffffffffffffffffffffffffffffff16610e656118d0565b73ffffffffffffffffffffffffffffffffffffffff1614610ebb576040517f08c379a0000000000000000000000000000000000000000000000000000000008152600401610eb290613d4b565b60405180910390fd5b610ec56000612ba5565b565b6000610ed16126c5565b73ffffffffffffffffffffffffffffffffffffffff16610eef6118d0565b73ffffffffffffffffffffffffffffffffffffffff1614610f45576040517f08c379a0000000000000000000000000000000000000000000000000000000008152600401610f3c90613d4b565b60405180910390fd5b6000600d60008473ffffffffffffffffffffffffffffffffffffffff1673ffffffffffffffffffffffffffffffffffffffff1681526020019081526020016000205411610fc7576040517f08c379a0000000000000000000000000000000000000000000000000000000008152600401610fbe90613ddd565b60405180910390fd5b6110113083600d60008673ffffffffffffffffffffffffffffffffffffffff1673ffffffffffffffffffffffffffffffffffffffff16815260200190815260200160002054612924565b6110196118d0565b73ffffffffffffffffffffffffffffffffffffffff166108fc600e60008573ffffffffffffffffffffffffffffffffffffffff1673ffffffffffffffffffffffffffffffffffffffff168152602001908152602001600020549081150290604051600060405180830381858888f1935050505015801561109d573d6000803e3d6000fd5b506110a782612c6b565b50601160405180608001604052808473ffffffffffffffffffffffffffffffffffffffff168152602001600d60008673ffffffffffffffffffffffffffffffffffffffff1673ffffffffffffffffffffffffffffffffffffffff168152602001908152602001600020548152602001600954815260200142815250908060018154018082558091505060019003906000526020600020906004020160009091909190915060008201518160000160006101000a81548173ffffffffffffffffffffffffffffffffffffffff021916908373ffffffffffffffffffffffffffffffffffffffff1602179055506020820151816001015560408201518160020155606082015181600301555050600c60019054906101000a900473ffffffffffffffffffffffffffffffffffffffff1673ffffffffffffffffffffffffffffffffffffffff166368bc851c83600d60008673ffffffffffffffffffffffffffffffffffffffff1673ffffffffffffffffffffffffffffffffffffffff16815260200190815260200160002054600954426006546040518663ffffffff1660e01b8152600401611258959493929190613e49565b6020604051808303816000875af1158015611277573d6000803e3d6000fd5b505050506040513d601f19601f8201168201806040525081019061129b9190613cd2565b506000600e60008473ffffffffffffffffffffffffffffffffffffffff1673ffffffffffffffffffffffffffffffffffffffff168152602001908152602001600020819055600d60008473ffffffffffffffffffffffffffffffffffffffff1673ffffffffffffffffffffffffffffffffffffffff168152602001908152602001600020819055506007600081548092919061133690613eaf565b919050555060019050919050565b60008161134f6118d0565b73ffffffffffffffffffffffffffffffffffffffff163373ffffffffffffffffffffffffffffffffffffffff1614806113b357508073ffffffffffffffffffffffffffffffffffffffff163373ffffffffffffffffffffffffffffffffffffffff16145b6113f2576040517f08c379a00000000000000000000000000000000000000000000000000000000081526004016113e990613f4b565b60405180910390fd5b6000600d60008573ffffffffffffffffffffffffffffffffffffffff1673ffffffffffffffffffffffffffffffffffffffff1681526020019081526020016000205411611474576040517f08c379a000000000000000000000000000000000000000000000000000000000815260040161146b90613ddd565b60405180910390fd5b8273ffffffffffffffffffffffffffffffffffffffff166108fc600e60008673ffffffffffffffffffffffffffffffffffffffff1673ffffffffffffffffffffffffffffffffffffffff168152602001908152602001600020549081150290604051600060405180830381858888f193505050501580156114f9573d6000803e3d6000fd5b50600d60008473ffffffffffffffffffffffffffffffffffffffff1673ffffffffffffffffffffffffffffffffffffffff16815260200190815260200160002054600f600060065481526020019081526020016000206004015461155d9190613ba8565b600f6000600654815260200190815260200160002060040181905550600d60008473ffffffffffffffffffffffffffffffffffffffff1673ffffffffffffffffffffffffffffffffffffffff16815260200190815260200160002054600a60008282546115ca9190613f6b565b925050819055506115da83612c6b565b50600c60019054906101000a900473ffffffffffffffffffffffffffffffffffffffff1673ffffffffffffffffffffffffffffffffffffffff166368bc851c84600d60008773ffffffffffffffffffffffffffffffffffffffff1673ffffffffffffffffffffffffffffffffffffffff16815260200190815260200160002054600954426006546040518663ffffffff1660e01b8152600401611681959493929190613feb565b6020604051808303816000875af11580156116a0573d6000803e3d6000fd5b505050506040513d601f19601f820116820180604052508101906116c49190613cd2565b506000600e60008573ffffffffffffffffffffffffffffffffffffffff1673ffffffffffffffffffffffffffffffffffffffff168152602001908152602001600020819055600d60008573ffffffffffffffffffffffffffffffffffffffff1673ffffffffffffffffffffffffffffffffffffffff168152602001908152602001600020819055506007600081548092919061175f90613eaf565b91905055506001915050919050565b6000600c60019054906101000a900473ffffffffffffffffffffffffffffffffffffffff1673ffffffffffffffffffffffffffffffffffffffff16638ab1d681836040518263ffffffff1660e01b81526004016117cb91906138bd565b6020604051808303816000875af11580156117ea573d6000803e3d6000fd5b505050506040513d601f19601f8201168201806040525081019061180e9190613cd2565b156118c657600c60019054906101000a900473ffffffffffffffffffffffffffffffffffffffff1673ffffffffffffffffffffffffffffffffffffffff166368bc851c83600080426006546040518663ffffffff1660e01b81526004016118799594939291906140e2565b6020604051808303816000875af1158015611898573d6000803e3d6000fd5b505050506040513d601f19601f820116820180604052508101906118bc9190613cd2565b50600190506118cb565b600090505b919050565b6000600560009054906101000a900473ffffffffffffffffffffffffffffffffffffffff16905090565b60606004805461190990613b47565b80601f016020809104026020016040519081016040528092919081815260200182805461193590613b47565b80156119825780601f1061195757610100808354040283529160200191611982565b820191906000526020600020905b81548152906001019060200180831161196557829003601f168201915b5050505050905090565b60095481565b60008061199d6126c5565b905060006119ab8286611d31565b9050838110156119f0576040517f08c379a00000000000000000000000000000000000000000000000000000000081526004016119e7906141ba565b60405180910390fd5b6119fd82868684036126cd565b60019250505092915050565b611a11613134565b6000600f600060065481526020019081526020016000206040518060e00160405290816000820154815260200160018201548152602001600282015481526020016003820154815260200160048201548152602001600582015481526020016006820160009054906101000a900460ff16151515158152505090508091505090565b600080611a9e6126c5565b9050611aab818585612924565b600191505092915050565b60065481565b600b5481565b6000600c60019054906101000a900473ffffffffffffffffffffffffffffffffffffffff1673ffffffffffffffffffffffffffffffffffffffff16631950c218336040518263ffffffff1660e01b8152600401611b1f91906138bd565b602060405180830381865afa158015611b3c573d6000803e3d6000fd5b505050506040513d601f19601f82011682018060405250810190611b609190613cd2565b80611b9d5750611b6e6118d0565b73ffffffffffffffffffffffffffffffffffffffff163373ffffffffffffffffffffffffffffffffffffffff16145b611bdc576040517f08c379a0000000000000000000000000000000000000000000000000000000008152600401611bd390613f4b565b60405180910390fd5b60085484611bea91906141da565b9350611bf886868685612d12565b611c058686868686612ea3565b50600c60019054906101000a900473ffffffffffffffffffffffffffffffffffffffff1673ffffffffffffffffffffffffffffffffffffffff166368bc851c3386600954426006546040518663ffffffff1660e01b8152600401611c6d959493929190614280565b6020604051808303816000875af1158015611c8c573d6000803e3d6000fd5b505050506040513d601f19601f82011682018060405250810190611cb09190613cd2565b507fffa6714dc8b78d77ffdb6349cf0cbd30bf4a48bc63d2074b5c7d05a69b226eca868660095487604051611ce894939291906142e6565b60405180910390a16001905095945050505050565b60006009546008541115611d2957611d22600954600854612fd690919063ffffffff16565b9050611d2e565b600190505b90565b6000600160008473ffffffffffffffffffffffffffffffffffffffff1673ffffffffffffffffffffffffffffffffffffffff16815260200190815260200160002060008373ffffffffffffffffffffffffffffffffffffffff1673ffffffffffffffffffffffffffffffffffffffff16815260200190815260200160002054905092915050565b6000611dc26126c5565b73ffffffffffffffffffffffffffffffffffffffff16611de06118d0565b73ffffffffffffffffffffffffffffffffffffffff1614611e36576040517f08c379a0000000000000000000000000000000000000000000000000000000008152600401611e2d90613d4b565b60405180910390fd5b60006007541115611e4a5760009050611e9b565b6000600f6000600654815260200190815260200160002060060160006101000a81548160ff0219169083151502179055506000600c60006101000a81548160ff021916908315150217905550600190505b90565b6000611ea86126c5565b73ffffffffffffffffffffffffffffffffffffffff16611ec66118d0565b73ffffffffffffffffffffffffffffffffffffffff1614611f1c576040517f08c379a0000000000000000000000000000000000000000000000000000000008152600401611f1390613d4b565b60405180910390fd5b600c60019054906101000a900473ffffffffffffffffffffffffffffffffffffffff1673ffffffffffffffffffffffffffffffffffffffff16631950c218836040518263ffffffff1660e01b8152600401611f7791906138bd565b602060405180830381865afa158015611f94573d6000803e3d6000fd5b505050506040513d601f19601f82011682018060405250810190611fb89190613cd2565b15611ff8576040517f08c379a0000000000000000000000000000000000000000000000000000000008152600401611fef90614377565b60405180910390fd5b600073ffffffffffffffffffffffffffffffffffffffff168273ffffffffffffffffffffffffffffffffffffffff161415612068576040517f08c379a000000000000000000000000000000000000000000000000000000000815260040161205f906143e3565b60405180910390fd5b600c60019054906101000a900473ffffffffffffffffffffffffffffffffffffffff1673ffffffffffffffffffffffffffffffffffffffff1663e43252d7836040518263ffffffff1660e01b81526004016120c391906138bd565b6020604051808303816000875af11580156120e2573d6000803e3d6000fd5b505050506040513d601f19601f820116820180604052508101906121069190613cd2565b50600c60019054906101000a900473ffffffffffffffffffffffffffffffffffffffff1673ffffffffffffffffffffffffffffffffffffffff166368bc851c83600080426006546040518663ffffffff1660e01b815260040161216d95949392919061444f565b6020604051808303816000875af115801561218c573d6000803e3d6000fd5b505050506040513d601f19601f820116820180604052508101906121b09190613cd2565b5060019050919050565b600a5481565b600f6020528060005260406000206000915090508060000154908060010154908060020154908060030154908060040154908060050154908060060160009054906101000a900460ff16905087565b6122176126c5565b73ffffffffffffffffffffffffffffffffffffffff166122356118d0565b73ffffffffffffffffffffffffffffffffffffffff161461228b576040517f08c379a000000000000000000000000000000000000000000000000000000000815260040161228290613d4b565b60405180910390fd5b600073ffffffffffffffffffffffffffffffffffffffff168173ffffffffffffffffffffffffffffffffffffffff1614156122fb576040517f08c379a00000000000000000000000000000000000000000000000000000000081526004016122f290614527565b60405180910390fd5b61230481612ba5565b50565b600c60009054906101000a900460ff16612356576040517f08c379a000000000000000000000000000000000000000000000000000000000815260040161234d90614593565b60405180910390fd5b818161238b61237c82600a61236b91906146e6565b600854612fd690919063ffffffff16565b83612fec90919063ffffffff16565b9150612395611cfd565b82101580156123ad575060006123aa83613002565b14155b6123ec576040517f08c379a00000000000000000000000000000000000000000000000000000000081526004016123e3906147a3565b60405180910390fd5b600f6000600654815260200190815260200160002060040154821115612447576040517f08c379a000000000000000000000000000000000000000000000000000000000815260040161243e90614835565b60405180910390fd5b600073ffffffffffffffffffffffffffffffffffffffff163373ffffffffffffffffffffffffffffffffffffffff1614156124b7576040517f08c379a00000000000000000000000000000000000000000000000000000000081526004016124ae906143e3565b60405180910390fd5b6124ea6124db84600a6124ca91906146e6565b600854612fd690919063ffffffff16565b85612fec90919063ffffffff16565b935083600a60008282546124fe9190613ba8565b9250508190555083600d60003373ffffffffffffffffffffffffffffffffffffffff1673ffffffffffffffffffffffffffffffffffffffff16815260200190815260200160002060008282546125549190613ba8565b9250508190555034600e60003373ffffffffffffffffffffffffffffffffffffffff1673ffffffffffffffffffffffffffffffffffffffff16815260200190815260200160002060008282546125aa9190613ba8565b9250508190555083600f60006006548152602001908152602001600020600401546125d59190613f6b565b600f60006006548152602001908152602001600020600401819055506125fb338561306a565b50600c60019054906101000a900473ffffffffffffffffffffffffffffffffffffffff1673ffffffffffffffffffffffffffffffffffffffff166368bc851c3386600954426006546040518663ffffffff1660e01b81526004016126639594939291906148a1565b6020604051808303816000875af1158015612682573d6000803e3d6000fd5b505050506040513d601f19601f820116820180604052508101906126a69190613cd2565b50600760008154809291906126ba90613c2d565b919050555050505050565b600033905090565b600073ffffffffffffffffffffffffffffffffffffffff168373ffffffffffffffffffffffffffffffffffffffff16141561273d576040517f08c379a000000000000000000000000000000000000000000000000000000000815260040161273490614979565b60405180910390fd5b600073ffffffffffffffffffffffffffffffffffffffff168273ffffffffffffffffffffffffffffffffffffffff1614156127ad576040517f08c379a00000000000000000000000000000000000000000000000000000000081526004016127a490614a0b565b60405180910390fd5b80600160008573ffffffffffffffffffffffffffffffffffffffff1673ffffffffffffffffffffffffffffffffffffffff16815260200190815260200160002060008473ffffffffffffffffffffffffffffffffffffffff1673ffffffffffffffffffffffffffffffffffffffff168152602001908152602001600020819055508173ffffffffffffffffffffffffffffffffffffffff168373ffffffffffffffffffffffffffffffffffffffff167f8c5be1e5ebec7d5bd14f71427d1e84f3dd0314c0f7b2291e5b200ac8c7c3b9258360405161288b9190613399565b60405180910390a3505050565b60006128a48484611d31565b90507fffffffffffffffffffffffffffffffffffffffffffffffffffffffffffffffff811461291e5781811015612910576040517f08c379a000000000000000000000000000000000000000000000000000000000815260040161290790614a77565b60405180910390fd5b61291d84848484036126cd565b5b50505050565b600073ffffffffffffffffffffffffffffffffffffffff168373ffffffffffffffffffffffffffffffffffffffff161415612994576040517f08c379a000000000000000000000000000000000000000000000000000000000815260040161298b90614b09565b60405180910390fd5b600073ffffffffffffffffffffffffffffffffffffffff168273ffffffffffffffffffffffffffffffffffffffff161415612a04576040517f08c379a00000000000000000000000000000000000000000000000000000000081526004016129fb90614b9b565b60405180910390fd5b612a0f838383613114565b60008060008573ffffffffffffffffffffffffffffffffffffffff1673ffffffffffffffffffffffffffffffffffffffff16815260200190815260200160002054905081811015612a95576040517f08c379a0000000000000000000000000000000000000000000000000000000008152600401612a8c90614c2d565b60405180910390fd5b8181036000808673ffffffffffffffffffffffffffffffffffffffff1673ffffffffffffffffffffffffffffffffffffffff16815260200190815260200160002081905550816000808573ffffffffffffffffffffffffffffffffffffffff1673ffffffffffffffffffffffffffffffffffffffff1681526020019081526020016000206000828254612b289190613ba8565b925050819055508273ffffffffffffffffffffffffffffffffffffffff168473ffffffffffffffffffffffffffffffffffffffff167fddf252ad1be2c89b69c2b068fc378daa952ba7f163c4a11628f55a4df523b3ef84604051612b8c9190613399565b60405180910390a3612b9f848484613119565b50505050565b6000600560009054906101000a900473ffffffffffffffffffffffffffffffffffffffff16905081600560006101000a81548173ffffffffffffffffffffffffffffffffffffffff021916908373ffffffffffffffffffffffffffffffffffffffff1602179055508173ffffffffffffffffffffffffffffffffffffffff168173ffffffffffffffffffffffffffffffffffffffff167f8be0079c531659141344cd1fd0a4f28419497f9722a3daafe3b4186f6b6457e060405160405180910390a35050565b6000600c60019054906101000a900473ffffffffffffffffffffffffffffffffffffffff1673ffffffffffffffffffffffffffffffffffffffff1663abfd81af836040518263ffffffff1660e01b8152600401612cc891906138bd565b6020604051808303816000875af1158015612ce7573d6000803e3d6000fd5b505050506040513d601f19601f82011682018060405250810190612d0b9190613cd2565b9050919050565b8284108015612d2057504283115b612d5f576040517f08c379a0000000000000000000000000000000000000000000000000000000008152600401612d5690614c99565b60405180910390fd5b612d676109a1565b8211158015612d765750600082115b612db5576040517f08c379a0000000000000000000000000000000000000000000000000000000008152600401612dac90614d51565b60405180910390fd5b612dd1600a54612dc36109a1565b61311e90919063ffffffff16565b821115612e13576040517f08c379a0000000000000000000000000000000000000000000000000000000008152600401612e0a90614de3565b60405180910390fd5b600060075414612e58576040517f08c379a0000000000000000000000000000000000000000000000000000000008152600401612e4f90614e4f565b60405180910390fd5b600b54811015612e9d576040517f08c379a0000000000000000000000000000000000000000000000000000000008152600401612e9490614ee1565b60405180910390fd5b50505050565b6000806006541115612ee1576000600f6000600654815260200190815260200160002060060160006101000a81548160ff0219169083151502179055505b8260098190555081600b8190555060066000815480929190612f0290613c2d565b91905055506040518060e0016040528087815260200186815260200184815260200185815260200185815260200183815260200160011515815250600f60006006548152602001908152602001600020600082015181600001556020820151816001015560408201518160020155606082015181600301556080820151816004015560a0820151816005015560c08201518160060160006101000a81548160ff0219169083151502179055509050506001600c60006101000a81548160ff0219169083151502179055905095945050505050565b60008183612fe49190614f30565b905092915050565b60008183612ffa91906141da565b905092915050565b600060095460085411156130405761303961302a600954600854612fd690919063ffffffff16565b83612fd690919063ffffffff16565b9050613065565b81613058600854600954612fd690919063ffffffff16565b61306291906141da565b90505b919050565b6000600c60019054906101000a900473ffffffffffffffffffffffffffffffffffffffff1673ffffffffffffffffffffffffffffffffffffffff16630204578784846040518363ffffffff1660e01b81526004016130c9929190614f61565b6020604051808303816000875af11580156130e8573d6000803e3d6000fd5b505050506040513d601f19601f8201168201806040525081019061310c9190613cd2565b905092915050565b505050565b505050565b6000818361312c9190613f6b565b905092915050565b6040518060e001604052806000815260200160008152602001600081526020016000815260200160008152602001600081526020016000151581525090565b6040518060800160405280600073ffffffffffffffffffffffffffffffffffffffff1681526020016000815260200160008152602001600081525090565b600081519050919050565b600082825260208201905092915050565b60005b838110156131eb5780820151818401526020810190506131d0565b838111156131fa576000848401525b50505050565b6000601f19601f8301169050919050565b600061321c826131b1565b61322681856131bc565b93506132368185602086016131cd565b61323f81613200565b840191505092915050565b600060208201905081810360008301526132648184613211565b905092915050565b6000604051905090565b600080fd5b600080fd5b600073ffffffffffffffffffffffffffffffffffffffff82169050919050565b60006132ab82613280565b9050919050565b6132bb816132a0565b81146132c657600080fd5b50565b6000813590506132d8816132b2565b92915050565b6000819050919050565b6132f1816132de565b81146132fc57600080fd5b50565b60008135905061330e816132e8565b92915050565b6000806040838503121561332b5761332a613276565b5b6000613339858286016132c9565b925050602061334a858286016132ff565b9150509250929050565b60008115159050919050565b61336981613354565b82525050565b60006020820190506133846000830184613360565b92915050565b613393816132de565b82525050565b60006020820190506133ae600083018461338a565b92915050565b6000806000606084860312156133cd576133cc613276565b5b60006133db868287016132c9565b93505060206133ec868287016132c9565b92505060406133fd868287016132ff565b9150509250925092565b600060ff82169050919050565b61341d81613407565b82525050565b60006020820190506134386000830184613414565b92915050565b60006020828403121561345457613453613276565b5b6000613462848285016132c9565b91505092915050565b600081519050919050565b600082825260208201905092915050565b6000819050602082019050919050565b6134a0816132de565b82525050565b6134af81613354565b82525050565b60e0820160008201516134cb6000850182613497565b5060208201516134de6020850182613497565b5060408201516134f16040850182613497565b5060608201516135046060850182613497565b5060808201516135176080850182613497565b5060a082015161352a60a0850182613497565b5060c082015161353d60c08501826134a6565b50505050565b600061354f83836134b5565b60e08301905092915050565b6000602082019050919050565b60006135738261346b565b61357d8185613476565b935061358883613487565b8060005b838110156135b95781516135a08882613543565b97506135ab8361355b565b92505060018101905061358c565b5085935050505092915050565b600060208201905081810360008301526135e08184613568565b905092915050565b600080fd5b600080fd5b7f4e487b7100000000000000000000000000000000000000000000000000000000600052604160045260246000fd5b61362a82613200565b810181811067ffffffffffffffff82111715613649576136486135f2565b5b80604052505050565b600061365c61326c565b90506136688282613621565b919050565b600067ffffffffffffffff821115613688576136876135f2565b5b61369182613200565b9050602081019050919050565b82818337600083830152505050565b60006136c06136bb8461366d565b613652565b9050828152602081018484840111156136dc576136db6135ed565b5b6136e784828561369e565b509392505050565b600082601f830112613704576137036135e8565b5b81356137148482602086016136ad565b91505092915050565b6000806040838503121561373457613733613276565b5b6000613742858286016132c9565b925050602083013567ffffffffffffffff8111156137635761376261327b565b5b61376f858286016136ef565b9150509250929050565b600081519050919050565b600082825260208201905092915050565b6000819050602082019050919050565b6137ae816132a0565b82525050565b6080820160008201516137ca60008501826137a5565b5060208201516137dd6020850182613497565b5060408201516137f06040850182613497565b5060608201516138036060850182613497565b50505050565b600061381583836137b4565b60808301905092915050565b6000602082019050919050565b600061383982613779565b6138438185613784565b935061384e83613795565b8060005b8381101561387f5781516138668882613809565b975061387183613821565b925050600181019050613852565b5085935050505092915050565b600060208201905081810360008301526138a6818461382e565b905092915050565b6138b7816132a0565b82525050565b60006020820190506138d260008301846138ae565b92915050565b60e0820160008201516138ee6000850182613497565b5060208201516139016020850182613497565b5060408201516139146040850182613497565b5060608201516139276060850182613497565b50608082015161393a6080850182613497565b5060a082015161394d60a0850182613497565b5060c082015161396060c08501826134a6565b50505050565b600060e08201905061397b60008301846138d8565b92915050565b600080600080600060a0868803121561399d5761399c613276565b5b60006139ab888289016132ff565b95505060206139bc888289016132ff565b94505060406139cd888289016132ff565b93505060606139de888289016132ff565b92505060806139ef888289016132ff565b9150509295509295909350565b60008060408385031215613a1357613a12613276565b5b6000613a21858286016132c9565b9250506020613a32858286016132c9565b9150509250929050565b600060208284031215613a5257613a51613276565b5b6000613a60848285016132ff565b91505092915050565b600060e082019050613a7e600083018a61338a565b613a8b602083018961338a565b613a98604083018861338a565b613aa5606083018761338a565b613ab2608083018661338a565b613abf60a083018561338a565b613acc60c0830184613360565b98975050505050505050565b60008060408385031215613aef57613aee613276565b5b6000613afd858286016132ff565b9250506020613b0e858286016132ff565b9150509250929050565b7f4e487b7100000000000000000000000000000000000000000000000000000000600052602260045260246000fd5b60006002820490506001821680613b5f57607f821691505b60208210811415613b7357613b72613b18565b5b50919050565b7f4e487b7100000000000000000000000000000000000000000000000000000000600052601160045260246000fd5b6000613bb3826132de565b9150613bbe836132de565b9250827fffffffffffffffffffffffffffffffffffffffffffffffffffffffffffffffff03821115613bf357613bf2613b79565b5b828201905092915050565b7f4e487b7100000000000000000000000000000000000000000000000000000000600052603260045260246000fd5b6000613c38826132de565b91507fffffffffffffffffffffffffffffffffffffffffffffffffffffffffffffffff821415613c6b57613c6a613b79565b5b600182019050919050565b6000604082019050613c8b60008301856138ae565b8181036020830152613c9d8184613211565b90509392505050565b613caf81613354565b8114613cba57600080fd5b50565b600081519050613ccc81613ca6565b92915050565b600060208284031215613ce857613ce7613276565b5b6000613cf684828501613cbd565b91505092915050565b7f4f776e61626c653a2063616c6c6572206973206e6f7420746865206f776e6572600082015250565b6000613d356020836131bc565b9150613d4082613cff565b602082019050919050565b60006020820190508181036000830152613d6481613d28565b9050919050565b7f54686973206164647265737320646f65736e2774206861766520616e7920706560008201527f6e64696e6720746f6b656e730000000000000000000000000000000000000000602082015250565b6000613dc7602c836131bc565b9150613dd282613d6b565b604082019050919050565b60006020820190508181036000830152613df681613dba565b9050919050565b7f417070726f766564000000000000000000000000000000000000000000000000600082015250565b6000613e336008836131bc565b9150613e3e82613dfd565b602082019050919050565b600060c082019050613e5e60008301886138ae565b613e6b602083018761338a565b613e78604083018661338a565b613e85606083018561338a565b613e92608083018461338a565b81810360a0830152613ea381613e26565b90509695505050505050565b6000613eba826132de565b91506000821415613ece57613ecd613b79565b5b600182039050919050565b7f5065726d697373696f6e2064656e69656420666f72207468697320616464726560008201527f7373000000000000000000000000000000000000000000000000000000000000602082015250565b6000613f356022836131bc565b9150613f4082613ed9565b604082019050919050565b60006020820190508181036000830152613f6481613f28565b9050919050565b6000613f76826132de565b9150613f81836132de565b925082821015613f9457613f93613b79565b5b828203905092915050565b7f44697320617070726f7665642100000000000000000000000000000000000000600082015250565b6000613fd5600d836131bc565b9150613fe082613f9f565b602082019050919050565b600060c08201905061400060008301886138ae565b61400d602083018761338a565b61401a604083018661338a565b614027606083018561338a565b614034608083018461338a565b81810360a083015261404581613fc8565b90509695505050505050565b6000819050919050565b6000819050919050565b600061408061407b61407684614051565b61405b565b6132de565b9050919050565b61409081614065565b82525050565b7f52656d6f7665642066726f6d2077686974656c69737400000000000000000000600082015250565b60006140cc6016836131bc565b91506140d782614096565b602082019050919050565b600060c0820190506140f760008301886138ae565b6141046020830187614087565b6141116040830186614087565b61411e606083018561338a565b61412b608083018461338a565b81810360a083015261413c816140bf565b90509695505050505050565b7f45524332303a2064656372656173656420616c6c6f77616e63652062656c6f7760008201527f207a65726f000000000000000000000000000000000000000000000000000000602082015250565b60006141a46025836131bc565b91506141af82614148565b604082019050919050565b600060208201905081810360008301526141d381614197565b9050919050565b60006141e5826132de565b91506141f0836132de565b9250817fffffffffffffffffffffffffffffffffffffffffffffffffffffffffffffffff048311821515161561422957614228613b79565b5b828202905092915050565b7f4d696e7400000000000000000000000000000000000000000000000000000000600082015250565b600061426a6004836131bc565b915061427582614234565b602082019050919050565b600060c08201905061429560008301886138ae565b6142a2602083018761338a565b6142af604083018661338a565b6142bc606083018561338a565b6142c9608083018461338a565b81810360a08301526142da8161425d565b90509695505050505050565b60006080820190506142fb600083018761338a565b614308602083018661338a565b614315604083018561338a565b614322606083018461338a565b95945050505050565b7f54686973206164647265737320616c7265616479206578697374000000000000600082015250565b6000614361601a836131bc565b915061436c8261432b565b602082019050919050565b6000602082019050818103600083015261439081614354565b9050919050565b7f556e6b6e6f776e20616464726573730000000000000000000000000000000000600082015250565b60006143cd600f836131bc565b91506143d882614397565b602082019050919050565b600060208201905081810360008301526143fc816143c0565b9050919050565b7f416464656420746f2077686974656c6973740000000000000000000000000000600082015250565b60006144396012836131bc565b915061444482614403565b602082019050919050565b600060c08201905061446460008301886138ae565b6144716020830187614087565b61447e6040830186614087565b61448b606083018561338a565b614498608083018461338a565b81810360a08301526144a98161442c565b90509695505050505050565b7f4f776e61626c653a206e6577206f776e657220697320746865207a65726f206160008201527f6464726573730000000000000000000000000000000000000000000000000000602082015250565b60006145116026836131bc565b915061451c826144b5565b604082019050919050565b6000602082019050818103600083015261454081614504565b9050919050565b7f4e6f2061637469766520706572696f6400000000000000000000000000000000600082015250565b600061457d6010836131bc565b915061458882614547565b602082019050919050565b600060208201905081810360008301526145ac81614570565b9050919050565b60008160011c9050919050565b6000808291508390505b600185111561460a578086048111156145e6576145e5613b79565b5b60018516156145f55780820291505b8081029050614603856145b3565b94506145ca565b94509492505050565b60008261462357600190506146df565b8161463157600090506146df565b8160018114614647576002811461465157614680565b60019150506146df565b60ff84111561466357614662613b79565b5b8360020a91508482111561467a57614679613b79565b5b506146df565b5060208310610133831016604e8410600b84101617156146b55782820a9050838111156146b0576146af613b79565b5b6146df565b6146c284848460016145c0565b925090508184048111156146d9576146d8613b79565b5b81810290505b9392505050565b60006146f1826132de565b91506146fc836132de565b92506147297fffffffffffffffffffffffffffffffffffffffffffffffffffffffffffffffff8484614613565b905092915050565b7f54686520616d6f756e74206f6620746f6b656e73206d7573742062652067726560008201527f61746572207468616e206d696e696d756d20746f6b656e730000000000000000602082015250565b600061478d6038836131bc565b915061479882614731565b604082019050919050565b600060208201905081810360008301526147bc81614780565b9050919050565b7f4e6f20617661696c61626c6520746f6b656e7320696e2061637469766520706560008201527f72696f6400000000000000000000000000000000000000000000000000000000602082015250565b600061481f6024836131bc565b915061482a826147c3565b604082019050919050565b6000602082019050818103600083015261484e81614812565b9050919050565b7f5265717565737420746f6b656e73000000000000000000000000000000000000600082015250565b600061488b600e836131bc565b915061489682614855565b602082019050919050565b600060c0820190506148b660008301886138ae565b6148c3602083018761338a565b6148d0604083018661338a565b6148dd606083018561338a565b6148ea608083018461338a565b81810360a08301526148fb8161487e565b90509695505050505050565b7f45524332303a20617070726f76652066726f6d20746865207a65726f2061646460008201527f7265737300000000000000000000000000000000000000000000000000000000602082015250565b60006149636024836131bc565b915061496e82614907565b604082019050919050565b6000602082019050818103600083015261499281614956565b9050919050565b7f45524332303a20617070726f766520746f20746865207a65726f20616464726560008201527f7373000000000000000000000000000000000000000000000000000000000000602082015250565b60006149f56022836131bc565b9150614a0082614999565b604082019050919050565b60006020820190508181036000830152614a24816149e8565b9050919050565b7f45524332303a20696e73756666696369656e7420616c6c6f77616e6365000000600082015250565b6000614a61601d836131bc565b9150614a6c82614a2b565b602082019050919050565b60006020820190508181036000830152614a9081614a54565b9050919050565b7f45524332303a207472616e736665722066726f6d20746865207a65726f20616460008201527f6472657373000000000000000000000000000000000000000000000000000000602082015250565b6000614af36025836131bc565b9150614afe82614a97565b604082019050919050565b60006020820190508181036000830152614b2281614ae6565b9050919050565b7f45524332303a207472616e7366657220746f20746865207a65726f206164647260008201527f6573730000000000000000000000000000000000000000000000000000000000602082015250565b6000614b856023836131bc565b9150614b9082614b29565b604082019050919050565b60006020820190508181036000830152614bb481614b78565b9050919050565b7f45524332303a207472616e7366657220616d6f756e742065786365656473206260008201527f616c616e63650000000000000000000000000000000000000000000000000000602082015250565b6000614c176026836131bc565b9150614c2282614bbb565b604082019050919050565b60006020820190508181036000830152614c4681614c0a565b9050919050565b7f556e646566696e65642074696d65000000000000000000000000000000000000600082015250565b6000614c83600e836131bc565b9150614c8e82614c4d565b602082019050919050565b60006020820190508181036000830152614cb281614c76565b9050919050565b7f54686520616d6f756e74206f6620746f6b656e73206d7573742062652067726560008201527f61746572207468616e203020616e64206c657373207468616e20746f74616c2060208201527f737570706c790000000000000000000000000000000000000000000000000000604082015250565b6000614d3b6046836131bc565b9150614d4682614cb9565b606082019050919050565b60006020820190508181036000830152614d6a81614d2e565b9050919050565b7f4e6f20617661696c61626c6520746f6b656e7320666f72207468697320616d6f60008201527f756e740000000000000000000000000000000000000000000000000000000000602082015250565b6000614dcd6023836131bc565b9150614dd882614d71565b604082019050919050565b60006020820190508181036000830152614dfc81614dc0565b9050919050565b7f54686572652061726520746f6b656e2072657175657374732070656e64696e67600082015250565b6000614e396020836131bc565b9150614e4482614e03565b602082019050919050565b60006020820190508181036000830152614e6881614e2c565b9050919050565b7f726571756972652061206861726463617020666967757265206d6f726520746860008201527f616e206f72206772656174657220746f20746865206c61737400000000000000602082015250565b6000614ecb6039836131bc565b9150614ed682614e6f565b604082019050919050565b60006020820190508181036000830152614efa81614ebe565b9050919050565b7f4e487b7100000000000000000000000000000000000000000000000000000000600052601260045260246000fd5b6000614f3b826132de565b9150614f46836132de565b925082614f5657614f55614f01565b5b828204905092915050565b6000604082019050614f7660008301856138ae565b614f83602083018461338a565b939250505056fea2646970667358221220dc16c06ada5ee1af74d9bc32ea416849f32a47e1065f7d6d5eb4449e53435c0b64736f6c634300080a0033",
  "immutableReferences": {},
  "source": "// SPDX-License-Identifier: MIT\r\npragma solidity >=0.4.21 <8.10.0;\r\n\r\nimport \"@openzeppelin/contracts/utils/math/SafeMath.sol\";\r\nimport \"@openzeppelin/contracts/token/ERC20/ERC20.sol\";\r\nimport \"@openzeppelin/contracts/access/Ownable.sol\";\r\nimport \"./AsixV3Presale.sol\";\r\n\r\ncontract AsixTokenV3 is ERC20, Ownable{\r\n\t   using SafeMath for uint256;\r\n\r\n    uint256 public id;\r\n    uint256 pendingCount;\r\n    uint256 _decimals = 10**decimals();\r\n    uint256 public price;\r\n    uint256 public totalPurchased;\r\n    uint256 public hardcap;\r\n    bool public activePeriod;\r\n    AsixV3Presale tokensale;\r\n    mapping(address => uint256) public contributers;\r\n    mapping(address => uint256) funds;\r\n    mapping(uint256 => Period) public periods;\r\n    mapping(address => mapping(uint256 => bool)) public userDetails; // userDetails[_who][purchasedAmount] = true (if has reached limit)\r\n\r\n    Purchased[] purchasedTokens;\r\n\r\n    /* ========= Structs ======== */ \r\n    struct Period{\r\n      uint256 startTime;\r\n      uint256 endTime;\r\n      uint256 price;\r\n      uint256 amount;\r\n      uint256 remaining;\r\n      uint256 hardcap;\r\n      bool active;\r\n    }\r\n\r\n    struct Purchased{\r\n        address _address;\r\n        uint256 _amount;\r\n        uint256 _price;\r\n        uint256 _time;\r\n    }\r\n\r\n    /* ========= Modifiers ======== */ \r\n    modifier isActive() {\r\n        require(activePeriod , \"No active period\");\r\n        _;\r\n    }\r\n    modifier isValidate(uint256 _amount, uint256 _num) {\r\n        _amount = _amount.mul(_decimals.div(10**_num));\r\n        require(_amount >= getMinimumTokens() && _value(_amount) != 0, \"The amount of tokens must be greater than minimum tokens\");\r\n        // require(_value(_amount) == msg.value, \"Entered value dosn't equal to tokens price\");\r\n        require(_amount <= periods[id].remaining, \"No available tokens in active period\");\r\n        require(msg.sender != address(0),\"Unknown address\");\r\n        _;\r\n    }\r\n\r\n    modifier onlyOwnToken(address _spender){\r\n        require(msg.sender == owner() || msg.sender == _spender, \"Permission denied for this address\");\r\n        _;\r\n    }\r\n\r\n    modifier onlyWhitelist(){\r\n        require(tokensale.checkWhitelist(msg.sender) || msg.sender == owner(), \"Permission denied for this address\");\r\n        _;\r\n    }\r\n\r\n    /* ========= Events ======== */ \r\n    event MintTokens(uint256 startTime, uint256 endTime, uint256 amount, uint256 price);\r\n\r\n    constructor(string memory _name, string memory _symbol, address _tokensale) ERC20(_name, _symbol) {\r\n        tokensale = AsixV3Presale(_tokensale);\r\n        _mint(address(this), 10e13 * _decimals);\r\n        address marketing = 0xbAd1A9503A1FbE4e3B6DA8C32Ef50709446Ff945;\r\n        address staking = 0xbAd1A9503A1FbE4e3B6DA8C32Ef50709446Ff945;\r\n        address team = 0xbAd1A9503A1FbE4e3B6DA8C32Ef50709446Ff945;\r\n        address protocol = 0xbAd1A9503A1FbE4e3B6DA8C32Ef50709446Ff945;\r\n        _transfer(address(this), marketing, 13e12 * _decimals); // 13 trillion\r\n        _transfer(address(this), staking, 5e12 * _decimals); // 5 trillion\r\n        _transfer(address(this), team, 18e12 * _decimals); // 18 trillion\r\n        _transfer(address(this), protocol, 24e12 * _decimals); // 24 trillion\r\n        // this address holds all other tokens (40 Trillion)\r\n    }\r\n\r\n    /*====================================================================================\r\n                                        Minting Method\r\n    ====================================================================================*/\r\n    function mintTokens(uint256 _startTime, uint256 _endTime, uint256 _amount, uint256 _price, uint _hardcap) public onlyWhitelist returns(bool){\r\n        _amount *= _decimals;\r\n        _preValidateMint(_startTime, _endTime, _amount, _hardcap);\r\n        _initialMint(_startTime, _endTime, _amount, _price, _hardcap);\r\n\r\n        tokensale.addActivity(msg.sender, _amount, price, block.timestamp, id, \"Mint\");\r\n        emit MintTokens(_startTime, _endTime, price, _amount);\r\n        return true;\r\n    }\r\n\r\n    /*====================================================================================\r\n                                            Token Methods\r\n    ====================================================================================*/ \r\n\tfunction requestToken(uint256 _amount, uint256 _num) payable public isActive isValidate(_amount, _num){\r\n        _amount = _amount.mul(_decimals.div(10**_num));\r\n        totalPurchased += _amount;\r\n        contributers[msg.sender] += _amount;\r\n        funds[msg.sender] += msg.value;\r\n        periods[id].remaining = periods[id].remaining - _amount;\r\n        updatePending(msg.sender, _amount);\r\n        tokensale.addActivity(msg.sender, _amount, price, block.timestamp, id, \"Request tokens\");\r\n        pendingCount++;\r\n    }\r\n\r\n    function approveToken(address _spender) public onlyOwner returns(bool){\r\n        require(contributers[_spender] > 0, \"This address doesn't have any pending tokens\");\r\n        _transfer(address(this), _spender, contributers[_spender]);\r\n\r\n        payable(owner()).transfer(funds[_spender]);\r\n        deletePending(_spender);\r\n\r\n        purchasedTokens.push(Purchased(_spender, contributers[_spender], price, block.timestamp));\r\n        tokensale.addActivity(_spender, contributers[_spender], price, block.timestamp, id, \"Approved\");\r\n        contributers[_spender] = funds[_spender] = 0;\r\n        pendingCount--;\r\n        return true;\r\n    }\r\n\r\n    function disApproveToken(address _spender) public onlyOwnToken(_spender) returns(bool){\r\n        require(contributers[_spender] > 0, \"This address doesn't have any pending tokens\");\r\n        payable(_spender).transfer(funds[_spender]);\r\n        periods[id].remaining = periods[id].remaining + contributers[_spender];\r\n        totalPurchased -= contributers[_spender];\r\n        deletePending(_spender);\r\n        tokensale.addActivity(_spender, contributers[_spender], price, block.timestamp, id, \"Dis approved!\");\r\n        contributers[_spender] = funds[_spender] = 0;\r\n        pendingCount--;\r\n        return true;\r\n    }\r\n\r\n    function getPurchasedTokens(address _address) public view returns(Purchased[] memory){\r\n        uint256 _length = purchasedTokens.length;\r\n        Purchased[] memory _purchasedTokens = new Purchased[](_length); \r\n        for(uint256 i = 0; i < _length; i++){\r\n            if(purchasedTokens[i]._address == _address){\r\n            _purchasedTokens[i] = purchasedTokens[i];\r\n            }\r\n        }\r\n        return _purchasedTokens;\r\n    }\r\n\r\n    function getMinimumTokens() public view returns(uint256){\r\n        if ( _decimals > price) return  _decimals.div(price);\r\n        return 1;\r\n    }\r\n\r\n    /*====================================================================================\r\n                                    Period Methods\r\n    ====================================================================================*/\r\n    function getPeriods() public view returns(Period[] memory){\r\n        Period[] memory _periods = new Period[](id);\r\n        for(uint256 i = 0; i < id; i++){\r\n            _periods[i] = periods[i + 1];\r\n        }\r\n        return _periods;\r\n    }\r\n\r\n    function getActivePeriod() public view returns(Period memory){\r\n        Period memory _period = periods[id];\r\n        return _period;\r\n    }\r\n\r\n    function deactivatePeriod() public onlyOwner returns(bool){\r\n        if(pendingCount > 0) return false;\r\n        periods[id].active = false;\r\n        activePeriod = false;\r\n        return true;\r\n    }\r\n\r\n    /*====================================================================================\r\n                                User Methods\r\n    ====================================================================================*/ \r\n    function addUser(address _address, string memory _name) public returns(bool){\r\n        tokensale.addUser(_address, _name);\r\n        return true;\r\n    }\r\n\r\n    function addToWhitelist(address _address) public onlyOwner returns(bool){\r\n        require(!tokensale.checkWhitelist(_address), \"This address already exist\");\r\n        require(_address != address(0), \"Unknown address\");\r\n        tokensale.addToWhitelist(_address);\r\n        tokensale.addActivity(_address, 0, 0, block.timestamp, id, \"Added to whitelist\");\r\n        return true;\r\n    }\r\n    \r\n    function removeFromWhitelist(address _address) public returns(bool){\r\n        if (tokensale.removeFromWhitelist(_address)) {\r\n            tokensale.addActivity(_address, 0, 0, block.timestamp, id, \"Removed from whitelist\");\r\n            return true;\r\n        } \r\n        return false;\r\n    }\r\n\r\n    /*====================================================================================\r\n                                        Internal Methods\r\n    ====================================================================================*/ \r\n    function deletePending(address _spender) internal returns(bool){\r\n         return tokensale.deletePending(_spender);\r\n    }\r\n\r\n    function updatePending(address _spender, uint256 _amount) internal returns(bool){\r\n        return tokensale.updatePending(_spender, _amount);\r\n    }\r\n\r\n    function _preValidateMint(uint256 _startTime, uint256 _endTime, uint256 _amount, uint256 _hardcap) internal view{\r\n        require( _startTime < _endTime && _endTime > block.timestamp, \"Undefined time\");\r\n        require(_amount <= totalSupply() && _amount > 0 , \"The amount of tokens must be greater than 0 and less than total supply\");\r\n        require(_amount <= (totalSupply().sub(totalPurchased)), \"No available tokens for this amount\");\r\n        require( pendingCount == 0, \"There are token requests pending\");\r\n        require(_hardcap >= hardcap, \"require a hardcap figure more than or greater to the last\");\r\n    }\r\n\r\n    function _initialMint(uint256 _startTime, uint256 _endTime, uint256 _amount, uint256 _price, uint _hardcap) internal returns(bool){\r\n        if(id > 0) periods[id].active = false;\r\n        price = _price;\r\n        hardcap = _hardcap;\r\n        id++;\r\n        periods[id] = Period(_startTime, _endTime, _price, _amount, _amount, _hardcap, true);\r\n        return activePeriod = true;\r\n    }\r\n\r\n    function _value(uint256 _amount) internal view returns(uint256){\r\n        if ( _decimals > price) {\r\n            return  _amount.div(_decimals.div(price));\r\n        }\r\n        return price.div(_decimals) * _amount;\r\n    }\r\n\r\n    /*====================================================================================\r\n\t   Fallback: reverts if Ether is sent to this smart-contract by mistake\r\n    ====================================================================================*/ \r\n    fallback () external {revert();}\r\n}",
  "sourcePath": "C:\\Users\\kiera\\Downloads\\Telegram Desktop\\contracts\\contracts\\AsixTokenV3.sol",
  "compiler": {
    "name": "solc",
    "version": "0.8.10+commit.fc410830.Emscripten.clang"
  },
  "schemaVersion": "3.4.3",
  "updatedAt": "2022-05-06T21:37:18.807Z",
  "networkType": "ethereum",
  "devdoc": {
    "kind": "dev",
    "methods": {
      "allowance(address,address)": {
        "details": "See {IERC20-allowance}."
      },
      "approve(address,uint256)": {
        "details": "See {IERC20-approve}. NOTE: If `amount` is the maximum `uint256`, the allowance is not updated on `transferFrom`. This is semantically equivalent to an infinite approval. Requirements: - `spender` cannot be the zero address."
      },
      "balanceOf(address)": {
        "details": "See {IERC20-balanceOf}."
      },
      "decimals()": {
        "details": "Returns the number of decimals used to get its user representation. For example, if `decimals` equals `2`, a balance of `505` tokens should be displayed to a user as `5.05` (`505 / 10 ** 2`). Tokens usually opt for a value of 18, imitating the relationship between Ether and Wei. This is the value {ERC20} uses, unless this function is overridden; NOTE: This information is only used for _display_ purposes: it in no way affects any of the arithmetic of the contract, including {IERC20-balanceOf} and {IERC20-transfer}."
      },
      "decreaseAllowance(address,uint256)": {
        "details": "Atomically decreases the allowance granted to `spender` by the caller. This is an alternative to {approve} that can be used as a mitigation for problems described in {IERC20-approve}. Emits an {Approval} event indicating the updated allowance. Requirements: - `spender` cannot be the zero address. - `spender` must have allowance for the caller of at least `subtractedValue`."
      },
      "increaseAllowance(address,uint256)": {
        "details": "Atomically increases the allowance granted to `spender` by the caller. This is an alternative to {approve} that can be used as a mitigation for problems described in {IERC20-approve}. Emits an {Approval} event indicating the updated allowance. Requirements: - `spender` cannot be the zero address."
      },
      "name()": {
        "details": "Returns the name of the token."
      },
      "owner()": {
        "details": "Returns the address of the current owner."
      },
      "renounceOwnership()": {
        "details": "Leaves the contract without owner. It will not be possible to call `onlyOwner` functions anymore. Can only be called by the current owner. NOTE: Renouncing ownership will leave the contract without an owner, thereby removing any functionality that is only available to the owner."
      },
      "symbol()": {
        "details": "Returns the symbol of the token, usually a shorter version of the name."
      },
      "totalSupply()": {
        "details": "See {IERC20-totalSupply}."
      },
      "transfer(address,uint256)": {
        "details": "See {IERC20-transfer}. Requirements: - `to` cannot be the zero address. - the caller must have a balance of at least `amount`."
      },
      "transferFrom(address,address,uint256)": {
        "details": "See {IERC20-transferFrom}. Emits an {Approval} event indicating the updated allowance. This is not required by the EIP. See the note at the beginning of {ERC20}. NOTE: Does not update the allowance if the current allowance is the maximum `uint256`. Requirements: - `from` and `to` cannot be the zero address. - `from` must have a balance of at least `amount`. - the caller must have allowance for ``from``'s tokens of at least `amount`."
      },
      "transferOwnership(address)": {
        "details": "Transfers ownership of the contract to a new account (`newOwner`). Can only be called by the current owner."
      }
    },
    "version": 1
  },
  "userdoc": {
    "kind": "user",
    "methods": {},
    "version": 1
  }
}