{
  "contractName": "AsixV3Presale",
  "abi": [
    {
      "inputs": [
        {
          "internalType": "address",
          "name": "_address",
          "type": "address"
        },
        {
          "internalType": "string",
          "name": "_name",
          "type": "string"
        }
      ],
      "name": "addUser",
      "outputs": [
        {
          "internalType": "bool",
          "name": "",
          "type": "bool"
        }
      ],
      "stateMutability": "nonpayable",
      "type": "function"
    },
    {
      "inputs": [
        {
          "internalType": "address",
          "name": "_address",
          "type": "address"
        }
      ],
      "name": "getUser",
      "outputs": [
        {
          "components": [
            {
              "internalType": "address",
              "name": "_address",
              "type": "address"
            },
            {
              "internalType": "string",
              "name": "code_name",
              "type": "string"
            }
          ],
          "internalType": "struct AsixV3Presale.User",
          "name": "",
          "type": "tuple"
        }
      ],
      "stateMutability": "view",
      "type": "function",
      "constant": true
    },
    {
      "inputs": [],
      "name": "getUsersList",
      "outputs": [
        {
          "components": [
            {
              "internalType": "address",
              "name": "_address",
              "type": "address"
            },
            {
              "internalType": "string",
              "name": "code_name",
              "type": "string"
            }
          ],
          "internalType": "struct AsixV3Presale.User[]",
          "name": "",
          "type": "tuple[]"
        }
      ],
      "stateMutability": "view",
      "type": "function",
      "constant": true
    },
    {
      "inputs": [
        {
          "internalType": "address",
          "name": "_address",
          "type": "address"
        }
      ],
      "name": "addToWhitelist",
      "outputs": [
        {
          "internalType": "bool",
          "name": "",
          "type": "bool"
        }
      ],
      "stateMutability": "nonpayable",
      "type": "function"
    },
    {
      "inputs": [],
      "name": "getWhitelisted",
      "outputs": [
        {
          "internalType": "address[]",
          "name": "",
          "type": "address[]"
        }
      ],
      "stateMutability": "view",
      "type": "function",
      "constant": true
    },
    {
      "inputs": [
        {
          "internalType": "address",
          "name": "_address",
          "type": "address"
        }
      ],
      "name": "removeFromWhitelist",
      "outputs": [
        {
          "internalType": "bool",
          "name": "",
          "type": "bool"
        }
      ],
      "stateMutability": "nonpayable",
      "type": "function"
    },
    {
      "inputs": [
        {
          "internalType": "address",
          "name": "_address",
          "type": "address"
        }
      ],
      "name": "checkWhitelist",
      "outputs": [
        {
          "internalType": "bool",
          "name": "",
          "type": "bool"
        }
      ],
      "stateMutability": "view",
      "type": "function",
      "constant": true
    },
    {
      "inputs": [
        {
          "internalType": "address",
          "name": "_address",
          "type": "address"
        },
        {
          "internalType": "uint256",
          "name": "_amount",
          "type": "uint256"
        },
        {
          "internalType": "uint256",
          "name": "_price",
          "type": "uint256"
        },
        {
          "internalType": "uint256",
          "name": "_time",
          "type": "uint256"
        },
        {
          "internalType": "uint256",
          "name": "_id",
          "type": "uint256"
        },
        {
          "internalType": "string",
          "name": "_status",
          "type": "string"
        }
      ],
      "name": "addActivity",
      "outputs": [
        {
          "internalType": "bool",
          "name": "",
          "type": "bool"
        }
      ],
      "stateMutability": "nonpayable",
      "type": "function"
    },
    {
      "inputs": [],
      "name": "getActivities",
      "outputs": [
        {
          "components": [
            {
              "internalType": "address",
              "name": "_address",
              "type": "address"
            },
            {
              "internalType": "uint256",
              "name": "_amount",
              "type": "uint256"
            },
            {
              "internalType": "uint256",
              "name": "_priceOfToken",
              "type": "uint256"
            },
            {
              "internalType": "uint256",
              "name": "_time",
              "type": "uint256"
            },
            {
              "internalType": "uint256",
              "name": "_indexOfPeriod",
              "type": "uint256"
            },
            {
              "internalType": "string",
              "name": "_status",
              "type": "string"
            }
          ],
          "internalType": "struct AsixV3Presale.Activity[]",
          "name": "",
          "type": "tuple[]"
        }
      ],
      "stateMutability": "view",
      "type": "function",
      "constant": true
    },
    {
      "inputs": [],
      "name": "getPendingTokens",
      "outputs": [
        {
          "components": [
            {
              "internalType": "address",
              "name": "_address",
              "type": "address"
            },
            {
              "internalType": "uint256",
              "name": "_amount",
              "type": "uint256"
            }
          ],
          "internalType": "struct AsixV3Presale.Pending[]",
          "name": "",
          "type": "tuple[]"
        }
      ],
      "stateMutability": "view",
      "type": "function",
      "constant": true
    },
    {
      "inputs": [
        {
          "internalType": "address",
          "name": "_spender",
          "type": "address"
        }
      ],
      "name": "deletePending",
      "outputs": [
        {
          "internalType": "bool",
          "name": "",
          "type": "bool"
        }
      ],
      "stateMutability": "nonpayable",
      "type": "function"
    },
    {
      "inputs": [
        {
          "internalType": "address",
          "name": "_spender",
          "type": "address"
        },
        {
          "internalType": "uint256",
          "name": "_amount",
          "type": "uint256"
        }
      ],
      "name": "updatePending",
      "outputs": [
        {
          "internalType": "bool",
          "name": "",
          "type": "bool"
        }
      ],
      "stateMutability": "nonpayable",
      "type": "function"
    }
  ],
  "bytecode": "0x608060405234801561001057600080fd5b50611f14806100206000396000f3fe608060405234801561001057600080fd5b50600436106100b45760003560e01c80638ab1d681116100715780638ab1d681146101c75780639b372b2b146101f7578063abfd81af14610215578063b56b893114610245578063c74e13f314610263578063e43252d714610281576100b4565b806302045787146100b95780631950c218146100e95780634b68d4311461011957806368bc851c146101495780636f77926b1461017957806371aa17c6146101a9575b600080fd5b6100d360048036038101906100ce91906114ca565b6102b1565b6040516100e09190611525565b60405180910390f35b61010360048036038101906100fe9190611540565b610456565b6040516101109190611525565b60405180910390f35b610133600480360381019061012e91906115d2565b610505565b6040516101409190611525565b60405180910390f35b610163600480360381019061015e9190611773565b6107b5565b6040516101709190611525565b60405180910390f35b610193600480360381019061018e9190611540565b6108c1565b6040516101a091906118f0565b60405180910390f35b6101b1610a8f565b6040516101be9190611a6c565b60405180910390f35b6101e160048036038101906101dc9190611540565b610c75565b6040516101ee9190611525565b60405180910390f35b6101ff610d65565b60405161020c9190611b3d565b60405180910390f35b61022f600480360381019061022a9190611540565b610e70565b60405161023c9190611525565b60405180910390f35b61024d610f72565b60405161025a9190611c3d565b60405180910390f35b61026b6110a8565b6040516102789190611d5e565b60405180910390f35b61029b60048036038101906102969190611540565b611265565b6040516102a89190611525565b60405180910390f35b600080600380549050905060005b8181101561039a57600381815481106102db576102da611d80565b5b906000526020600020906002020160000160009054906101000a900473ffffffffffffffffffffffffffffffffffffffff1673ffffffffffffffffffffffffffffffffffffffff168573ffffffffffffffffffffffffffffffffffffffff16141561038757836003828154811061035557610354611d80565b5b906000526020600020906002020160010160008282546103759190611dde565b92505081905550600192505050610450565b808061039290611e34565b9150506102bf565b50600060405180604001604052808673ffffffffffffffffffffffffffffffffffffffff168152602001858152509050600381908060018154018082558091505060019003906000526020600020906002020160009091909190915060008201518160000160006101000a81548173ffffffffffffffffffffffffffffffffffffffff021916908373ffffffffffffffffffffffffffffffffffffffff1602179055506020820151816001015550506001925050505b92915050565b600080600090505b6001805490508110156104fa576001818154811061047f5761047e611d80565b5b9060005260206000200160009054906101000a900473ffffffffffffffffffffffffffffffffffffffff1673ffffffffffffffffffffffffffffffffffffffff168373ffffffffffffffffffffffffffffffffffffffff1614156104e7576001915050610500565b80806104f290611e34565b91505061045e565b50600090505b919050565b600080600090505b6000805490508110156106a8576000818154811061052e5761052d611d80565b5b906000526020600020906002020160000160009054906101000a900473ffffffffffffffffffffffffffffffffffffffff1673ffffffffffffffffffffffffffffffffffffffff163373ffffffffffffffffffffffffffffffffffffffff1614156106955760405180604001604052808673ffffffffffffffffffffffffffffffffffffffff16815260200185858080601f016020809104026020016040519081016040528093929190818152602001838380828437600081840152601f19601f820116905080830192505050505050508152506000828154811061061657610615611d80565b5b906000526020600020906002020160008201518160000160006101000a81548173ffffffffffffffffffffffffffffffffffffffff021916908373ffffffffffffffffffffffffffffffffffffffff16021790555060208201518160010190805190602001906106879291906112d3565b5090505060019150506107ae565b80806106a090611e34565b91505061050d565b50600060405180604001604052808673ffffffffffffffffffffffffffffffffffffffff16815260200185858080601f016020809104026020016040519081016040528093929190818152602001838380828437600081840152601f19601f82011690508083019250505050505050815250908060018154018082558091505060019003906000526020600020906002020160009091909190915060008201518160000160006101000a81548173ffffffffffffffffffffffffffffffffffffffff021916908373ffffffffffffffffffffffffffffffffffffffff16021790555060208201518160010190805190602001906107a69291906112d3565b505050600190505b9392505050565b600060026040518060c001604052808973ffffffffffffffffffffffffffffffffffffffff16815260200188815260200187815260200186815260200185815260200184815250908060018154018082558091505060019003906000526020600020906006020160009091909190915060008201518160000160006101000a81548173ffffffffffffffffffffffffffffffffffffffff021916908373ffffffffffffffffffffffffffffffffffffffff1602179055506020820151816001015560408201518160020155606082015181600301556080820151816004015560a08201518160050190805190602001906108b09291906112d3565b505050600190509695505050505050565b6108c9611359565b6108d1611359565b60005b600080549050811015610a85578373ffffffffffffffffffffffffffffffffffffffff166000828154811061090c5761090b611d80565b5b906000526020600020906002020160000160009054906101000a900473ffffffffffffffffffffffffffffffffffffffff1673ffffffffffffffffffffffffffffffffffffffff161415610a72576000818154811061096e5761096d611d80565b5b90600052602060002090600202016040518060400160405290816000820160009054906101000a900473ffffffffffffffffffffffffffffffffffffffff1673ffffffffffffffffffffffffffffffffffffffff1673ffffffffffffffffffffffffffffffffffffffff1681526020016001820180546109ed90611eac565b80601f0160208091040260200160405190810160405280929190818152602001828054610a1990611eac565b8015610a665780601f10610a3b57610100808354040283529160200191610a66565b820191906000526020600020905b815481529060010190602001808311610a4957829003601f168201915b50505050508152505091505b8080610a7d90611e34565b9150506108d4565b5080915050919050565b60606000600280549050905060008167ffffffffffffffff811115610ab757610ab6611648565b5b604051908082528060200260200182016040528015610af057816020015b610add611389565b815260200190600190039081610ad55790505b50905060005b82811015610c6c5760028181548110610b1257610b11611d80565b5b90600052602060002090600602016040518060c00160405290816000820160009054906101000a900473ffffffffffffffffffffffffffffffffffffffff1673ffffffffffffffffffffffffffffffffffffffff1673ffffffffffffffffffffffffffffffffffffffff16815260200160018201548152602001600282015481526020016003820154815260200160048201548152602001600582018054610bb990611eac565b80601f0160208091040260200160405190810160405280929190818152602001828054610be590611eac565b8015610c325780601f10610c0757610100808354040283529160200191610c32565b820191906000526020600020905b815481529060010190602001808311610c1557829003601f168201915b505050505081525050828281518110610c4e57610c4d611d80565b5b60200260200101819052508080610c6490611e34565b915050610af6565b50809250505090565b600080600090505b600180549050811015610d5a578273ffffffffffffffffffffffffffffffffffffffff1660018281548110610cb557610cb4611d80565b5b9060005260206000200160009054906101000a900473ffffffffffffffffffffffffffffffffffffffff1673ffffffffffffffffffffffffffffffffffffffff161415610d475760018181548110610d1057610d0f611d80565b5b9060005260206000200160006101000a81549073ffffffffffffffffffffffffffffffffffffffff02191690556001915050610d60565b8080610d5290611e34565b915050610c7d565b50600090505b919050565b6060600060018054905067ffffffffffffffff811115610d8857610d87611648565b5b604051908082528060200260200182016040528015610db65781602001602082028036833780820191505090505b50905060005b600180549050811015610e685760018181548110610ddd57610ddc611d80565b5b9060005260206000200160009054906101000a900473ffffffffffffffffffffffffffffffffffffffff16828281518110610e1b57610e1a611d80565b5b602002602001019073ffffffffffffffffffffffffffffffffffffffff16908173ffffffffffffffffffffffffffffffffffffffff16815250508080610e6090611e34565b915050610dbc565b508091505090565b600080600380549050905060005b81811015610f675760038181548110610e9a57610e99611d80565b5b906000526020600020906002020160000160009054906101000a900473ffffffffffffffffffffffffffffffffffffffff1673ffffffffffffffffffffffffffffffffffffffff168473ffffffffffffffffffffffffffffffffffffffff161415610f545760038181548110610f1357610f12611d80565b5b9060005260206000209060020201600080820160006101000a81549073ffffffffffffffffffffffffffffffffffffffff0219169055600182016000905550505b8080610f5f90611e34565b915050610e7e565b506001915050919050565b60606000600380549050905060008167ffffffffffffffff811115610f9a57610f99611648565b5b604051908082528060200260200182016040528015610fd357816020015b610fc06113d5565b815260200190600190039081610fb85790505b50905060005b8281101561109f5760038181548110610ff557610ff4611d80565b5b90600052602060002090600202016040518060400160405290816000820160009054906101000a900473ffffffffffffffffffffffffffffffffffffffff1673ffffffffffffffffffffffffffffffffffffffff1673ffffffffffffffffffffffffffffffffffffffff16815260200160018201548152505082828151811061108157611080611d80565b5b6020026020010181905250808061109790611e34565b915050610fd9565b50809250505090565b606060008080549050905060008167ffffffffffffffff8111156110cf576110ce611648565b5b60405190808252806020026020018201604052801561110857816020015b6110f5611359565b8152602001906001900390816110ed5790505b50905060005b8281101561125c576000818154811061112a57611129611d80565b5b90600052602060002090600202016040518060400160405290816000820160009054906101000a900473ffffffffffffffffffffffffffffffffffffffff1673ffffffffffffffffffffffffffffffffffffffff1673ffffffffffffffffffffffffffffffffffffffff1681526020016001820180546111a990611eac565b80601f01602080910402602001604051908101604052809291908181526020018280546111d590611eac565b80156112225780601f106111f757610100808354040283529160200191611222565b820191906000526020600020905b81548152906001019060200180831161120557829003601f168201915b50505050508152505082828151811061123e5761123d611d80565b5b6020026020010181905250808061125490611e34565b91505061110e565b50809250505090565b60006001829080600181540180825580915050600190039060005260206000200160009091909190916101000a81548173ffffffffffffffffffffffffffffffffffffffff021916908373ffffffffffffffffffffffffffffffffffffffff16021790555060019050919050565b8280546112df90611eac565b90600052602060002090601f0160209004810192826113015760008555611348565b82601f1061131a57805160ff1916838001178555611348565b82800160010185558215611348579182015b8281111561134757825182559160200191906001019061132c565b5b5090506113559190611405565b5090565b6040518060400160405280600073ffffffffffffffffffffffffffffffffffffffff168152602001606081525090565b6040518060c00160405280600073ffffffffffffffffffffffffffffffffffffffff16815260200160008152602001600081526020016000815260200160008152602001606081525090565b6040518060400160405280600073ffffffffffffffffffffffffffffffffffffffff168152602001600081525090565b5b8082111561141e576000816000905550600101611406565b5090565b6000604051905090565b600080fd5b600080fd5b600073ffffffffffffffffffffffffffffffffffffffff82169050919050565b600061146182611436565b9050919050565b61147181611456565b811461147c57600080fd5b50565b60008135905061148e81611468565b92915050565b6000819050919050565b6114a781611494565b81146114b257600080fd5b50565b6000813590506114c48161149e565b92915050565b600080604083850312156114e1576114e061142c565b5b60006114ef8582860161147f565b9250506020611500858286016114b5565b9150509250929050565b60008115159050919050565b61151f8161150a565b82525050565b600060208201905061153a6000830184611516565b92915050565b6000602082840312156115565761155561142c565b5b60006115648482850161147f565b91505092915050565b600080fd5b600080fd5b600080fd5b60008083601f8401126115925761159161156d565b5b8235905067ffffffffffffffff8111156115af576115ae611572565b5b6020830191508360018202830111156115cb576115ca611577565b5b9250929050565b6000806000604084860312156115eb576115ea61142c565b5b60006115f98682870161147f565b935050602084013567ffffffffffffffff81111561161a57611619611431565b5b6116268682870161157c565b92509250509250925092565b600080fd5b6000601f19601f8301169050919050565b7f4e487b7100000000000000000000000000000000000000000000000000000000600052604160045260246000fd5b61168082611637565b810181811067ffffffffffffffff8211171561169f5761169e611648565b5b80604052505050565b60006116b2611422565b90506116be8282611677565b919050565b600067ffffffffffffffff8211156116de576116dd611648565b5b6116e782611637565b9050602081019050919050565b82818337600083830152505050565b6000611716611711846116c3565b6116a8565b90508281526020810184848401111561173257611731611632565b5b61173d8482856116f4565b509392505050565b600082601f83011261175a5761175961156d565b5b813561176a848260208601611703565b91505092915050565b60008060008060008060c087890312156117905761178f61142c565b5b600061179e89828a0161147f565b96505060206117af89828a016114b5565b95505060406117c089828a016114b5565b94505060606117d189828a016114b5565b93505060806117e289828a016114b5565b92505060a087013567ffffffffffffffff81111561180357611802611431565b5b61180f89828a01611745565b9150509295509295509295565b61182581611456565b82525050565b600081519050919050565b600082825260208201905092915050565b60005b8381101561186557808201518184015260208101905061184a565b83811115611874576000848401525b50505050565b60006118858261182b565b61188f8185611836565b935061189f818560208601611847565b6118a881611637565b840191505092915050565b60006040830160008301516118cb600086018261181c565b50602083015184820360208601526118e3828261187a565b9150508091505092915050565b6000602082019050818103600083015261190a81846118b3565b905092915050565b600081519050919050565b600082825260208201905092915050565b6000819050602082019050919050565b61194781611494565b82525050565b600060c083016000830151611965600086018261181c565b506020830151611978602086018261193e565b50604083015161198b604086018261193e565b50606083015161199e606086018261193e565b5060808301516119b1608086018261193e565b5060a083015184820360a08601526119c9828261187a565b9150508091505092915050565b60006119e2838361194d565b905092915050565b6000602082019050919050565b6000611a0282611912565b611a0c818561191d565b935083602082028501611a1e8561192e565b8060005b85811015611a5a5784840389528151611a3b85826119d6565b9450611a46836119ea565b925060208a01995050600181019050611a22565b50829750879550505050505092915050565b60006020820190508181036000830152611a8681846119f7565b905092915050565b600081519050919050565b600082825260208201905092915050565b6000819050602082019050919050565b6000611ac6838361181c565b60208301905092915050565b6000602082019050919050565b6000611aea82611a8e565b611af48185611a99565b9350611aff83611aaa565b8060005b83811015611b30578151611b178882611aba565b9750611b2283611ad2565b925050600181019050611b03565b5085935050505092915050565b60006020820190508181036000830152611b578184611adf565b905092915050565b600081519050919050565b600082825260208201905092915050565b6000819050602082019050919050565b604082016000820151611ba1600085018261181c565b506020820151611bb4602085018261193e565b50505050565b6000611bc68383611b8b565b60408301905092915050565b6000602082019050919050565b6000611bea82611b5f565b611bf48185611b6a565b9350611bff83611b7b565b8060005b83811015611c30578151611c178882611bba565b9750611c2283611bd2565b925050600181019050611c03565b5085935050505092915050565b60006020820190508181036000830152611c578184611bdf565b905092915050565b600081519050919050565b600082825260208201905092915050565b6000819050602082019050919050565b6000604083016000830151611ca3600086018261181c565b5060208301518482036020860152611cbb828261187a565b9150508091505092915050565b6000611cd48383611c8b565b905092915050565b6000602082019050919050565b6000611cf482611c5f565b611cfe8185611c6a565b935083602082028501611d1085611c7b565b8060005b85811015611d4c5784840389528151611d2d8582611cc8565b9450611d3883611cdc565b925060208a01995050600181019050611d14565b50829750879550505050505092915050565b60006020820190508181036000830152611d788184611ce9565b905092915050565b7f4e487b7100000000000000000000000000000000000000000000000000000000600052603260045260246000fd5b7f4e487b7100000000000000000000000000000000000000000000000000000000600052601160045260246000fd5b6000611de982611494565b9150611df483611494565b9250827fffffffffffffffffffffffffffffffffffffffffffffffffffffffffffffffff03821115611e2957611e28611daf565b5b828201905092915050565b6000611e3f82611494565b91507fffffffffffffffffffffffffffffffffffffffffffffffffffffffffffffffff821415611e7257611e71611daf565b5b600182019050919050565b7f4e487b7100000000000000000000000000000000000000000000000000000000600052602260045260246000fd5b60006002820490506001821680611ec457607f821691505b60208210811415611ed857611ed7611e7d565b5b5091905056fea26469706673582212208b432b00bfd4c27ced5a919be7109376f360347c19ca201bb1a0f2b948fc487d64736f6c634300080a0033",
  "immutableReferences": {},
  "source": "// SPDX-License-Identifier: MIT\r\npragma solidity >=0.4.17 <8.10.0;\r\n\r\ncontract AsixV3Presale{\r\n\r\n    User[] users;\r\n    address[] whitelist;\r\n    Activity[] activities;\r\n    Pending[] pendingTokens;\r\n\r\n    struct User{\r\n        address _address;\r\n        string code_name;\r\n    }\r\n\r\n    struct Activity{\r\n        address _address;\r\n        uint256 _amount;\r\n        uint256 _priceOfToken;\r\n        uint256 _time;\r\n        uint256 _indexOfPeriod;\r\n        string _status;\r\n    }\r\n\r\n    struct Pending{\r\n        address _address;\r\n        uint256 _amount;\r\n    }\r\n\r\n    /*====================================================================================\r\n                                User Methods\r\n    ====================================================================================*/ \r\n    function addUser(address _address, string calldata _name) external returns(bool){\r\n        for (uint256 index = 0; index < users.length; index++) {\r\n            if (msg.sender == users[index]._address) {\r\n                users[index] = User(_address, _name);\r\n                return true;\r\n            }  \r\n        }\r\n        users.push(User(_address, _name));\r\n        return true;\r\n    }\r\n\r\n    function getUser(address _address) public view returns(User memory){\r\n        User memory _user;\r\n        for (uint256 i = 0; i < users.length; i++) {\r\n            if (users[i]._address == _address) { _user = users[i];}  \r\n        }\r\n        return _user;\r\n    }\r\n\r\n    function getUsersList() public view returns(User[] memory){\r\n        uint256 _length = users.length;\r\n        User[] memory _users = new User[](_length); \r\n        for(uint256 i = 0; i < _length; i++){\r\n            _users[i] = users[i];\r\n        }\r\n        return _users;\r\n    }\r\n\r\n    /*====================================================================================\r\n                                Whitelist Methods\r\n    ====================================================================================*/ \r\n      function addToWhitelist(address _address) external returns(bool){\r\n        whitelist.push(_address);\r\n        return true;\r\n    }\r\n    \r\n    function getWhitelisted() public view returns(address[] memory){\r\n        address[] memory _whitelist = new address[] (whitelist.length);\r\n        for(uint256 i = 0; i < whitelist.length; i++){\r\n            _whitelist[i] = whitelist[i];\r\n        }\r\n        return _whitelist;\r\n    }\r\n\r\n    function removeFromWhitelist(address _address) external returns(bool){\r\n        for (uint256 index = 0; index < whitelist.length; index++) {\r\n            if (whitelist[index] == _address) {\r\n                delete whitelist[index];\r\n                return true;\r\n            }\r\n        }\r\n        return false;\r\n    }\r\n    function checkWhitelist(address _address) external  view returns(bool){\r\n        for(uint256 i = 0; i < whitelist.length; i++){\r\n            if(_address == whitelist[i]) return true;\r\n        }\r\n        return false;\r\n    } \r\n    /*====================================================================================\r\n                                Activity Methods\r\n    ====================================================================================*/ \r\n    function addActivity(address _address, uint256 _amount, uint256 _price, uint256 _time, uint256 _id, string memory _status) external returns(bool){\r\n        activities.push(Activity(_address, _amount, _price, _time, _id, _status));\r\n        return true;\r\n    }\r\n\r\n    function getActivities() public view returns(Activity[] memory){\r\n        uint256 _length = activities.length;\r\n        Activity[] memory _activities = new Activity[](_length); \r\n        for(uint256 i = 0; i < _length; i++){\r\n            _activities[i] = activities[i];\r\n        }\r\n        return _activities;\r\n    }\r\n\r\n    function getPendingTokens() public view returns(Pending[] memory){\r\n        uint256 _length = pendingTokens.length;\r\n        Pending[] memory _pending  = new Pending[](_length);\r\n        for(uint256 i = 0; i < _length; i++){\r\n            _pending[i] = pendingTokens[i];\r\n        }\r\n        return _pending;\r\n    }\r\n\r\n    function deletePending(address _spender) external returns(bool){\r\n        uint256 length = pendingTokens.length;\r\n        for (uint256 index = 0; index < length; index++) {\r\n            if (_spender == pendingTokens[index]._address) {\r\n                delete pendingTokens[index];\r\n            }  \r\n        }\r\n        return true;\r\n    }\r\n\r\n    function updatePending(address _spender, uint256 _amount) external returns(bool){\r\n        uint256 length = pendingTokens.length;\r\n        for (uint256 index = 0; index < length; index++) {\r\n            if (_spender == pendingTokens[index]._address) {\r\n                pendingTokens[index]._amount += _amount;\r\n                return true;\r\n            } \r\n        }\r\n        Pending memory _pending = Pending(_spender, _amount);\r\n        pendingTokens.push(_pending);\r\n        return true;\r\n    }\r\n\r\n}",
  "sourcePath": "C:\\Users\\kiera\\Downloads\\Telegram Desktop\\contracts\\contracts\\AsixV3Presale.sol",
  "compiler": {
    "name": "solc",
    "version": "0.8.10+commit.fc410830.Emscripten.clang"
  },
  "schemaVersion": "3.4.3",
  "updatedAt": "2022-05-06T21:37:18.772Z",
  "networkType": "ethereum",
  "devdoc": {
    "kind": "dev",
    "methods": {},
    "version": 1
  },
  "userdoc": {
    "kind": "user",
    "methods": {},
    "version": 1
  }
}